{
  "contractName": "ProxyGovernance",
  "abi": [
    {
      "anonymous": false,
      "inputs": [
        {
          "indexed": false,
          "internalType": "address",
          "name": "acceptedGovernor",
          "type": "address"
        }
      ],
      "name": "LogNewGovernorAccepted",
      "type": "event"
    },
    {
      "anonymous": false,
      "inputs": [
        {
          "indexed": false,
          "internalType": "address",
          "name": "nominatedGovernor",
          "type": "address"
        }
      ],
      "name": "LogNominatedGovernor",
      "type": "event"
    },
    {
      "anonymous": false,
      "inputs": [],
      "name": "LogNominationCancelled",
      "type": "event"
    },
    {
      "anonymous": false,
      "inputs": [
        {
          "indexed": false,
          "internalType": "address",
          "name": "removedGovernor",
          "type": "address"
        }
      ],
      "name": "LogRemovedGovernor",
      "type": "event"
    },
    {
      "constant": true,
      "inputs": [],
      "name": "PROXY_GOVERNANCE_TAG",
      "outputs": [
        {
          "internalType": "string",
          "name": "",
          "type": "string"
        }
      ],
      "payable": false,
      "stateMutability": "view",
      "type": "function"
    },
    {
      "constant": true,
      "inputs": [
        {
          "internalType": "address",
          "name": "testGovernor",
          "type": "address"
        }
      ],
      "name": "proxyIsGovernor",
      "outputs": [
        {
          "internalType": "bool",
          "name": "",
          "type": "bool"
        }
      ],
      "payable": false,
      "stateMutability": "view",
      "type": "function"
    },
    {
      "constant": false,
      "inputs": [
        {
          "internalType": "address",
          "name": "newGovernor",
          "type": "address"
        }
      ],
      "name": "proxyNominateNewGovernor",
      "outputs": [],
      "payable": false,
      "stateMutability": "nonpayable",
      "type": "function"
    },
    {
      "constant": false,
      "inputs": [
        {
          "internalType": "address",
          "name": "governorForRemoval",
          "type": "address"
        }
      ],
      "name": "proxyRemoveGovernor",
      "outputs": [],
      "payable": false,
      "stateMutability": "nonpayable",
      "type": "function"
    },
    {
      "constant": false,
      "inputs": [],
      "name": "proxyAcceptGovernance",
      "outputs": [],
      "payable": false,
      "stateMutability": "nonpayable",
      "type": "function"
    },
    {
      "constant": false,
      "inputs": [],
      "name": "proxyCancelNomination",
      "outputs": [],
      "payable": false,
      "stateMutability": "nonpayable",
      "type": "function"
    }
  ],
  "bytecode": "0x608060405234801561001057600080fd5b50610bcf806100206000396000f3fe608060405234801561001057600080fd5b50600436106100625760003560e01c806312f16e6d1461006757806356f36dbf146100ab5780636684b1d61461012e5780638757653f14610138578063b449ea5d1461017c578063f9bcdde4146101d8575b600080fd5b6100a96004803603602081101561007d57600080fd5b81019080803573ffffffffffffffffffffffffffffffffffffffff1690602001909291905050506101e2565b005b6100b36101ee565b6040518080602001828103825283818151815260200191508051906020019080838360005b838110156100f35780820151818401526020810190506100d8565b50505050905090810190601f1680156101205780820380516001836020036101000a031916815260200191505b509250505060405180910390f35b61013661020a565b005b61017a6004803603602081101561014e57600080fd5b81019080803573ffffffffffffffffffffffffffffffffffffffff169060200190929190505050610214565b005b6101be6004803603602081101561019257600080fd5b81019080803573ffffffffffffffffffffffffffffffffffffffff169060200190929190505050610220565b604051808215151515815260200191505060405180910390f35b6101e0610232565b005b6101eb8161023c565b50565b604051806060016040528060278152602001610b746027913981565b6102126104a1565b565b61021d81610649565b50565b600061022b826107fc565b9050919050565b61023a610860565b565b610245336107fc565b6102b7576040517f08c379a000000000000000000000000000000000000000000000000000000000815260040180806020018281038252600f8152602001807f4f4e4c595f474f5645524e414e4345000000000000000000000000000000000081525060200191505060405180910390fd5b8073ffffffffffffffffffffffffffffffffffffffff163373ffffffffffffffffffffffffffffffffffffffff161415610359576040517f08c379a00000000000000000000000000000000000000000000000000000000081526004018080602001828103825260148152602001807f474f5645524e4f525f53454c465f52454d4f564500000000000000000000000081525060200191505060405180910390fd5b600061036361095a565b905061036e826107fc565b6103e0576040517f08c379a000000000000000000000000000000000000000000000000000000000815260040180806020018281038252600c8152602001807f4e4f545f474f5645524e4f52000000000000000000000000000000000000000081525060200191505060405180910390fd5b60008160000160008473ffffffffffffffffffffffffffffffffffffffff1673ffffffffffffffffffffffffffffffffffffffff16815260200190815260200160002060006101000a81548160ff0219169083151502179055507fd75f94825e770b8b512be8e74759e252ad00e102e38f50cce2f7c6f868a2959982604051808273ffffffffffffffffffffffffffffffffffffffff1673ffffffffffffffffffffffffffffffffffffffff16815260200191505060405180910390a15050565b60006104ab61095a565b90508060010160009054906101000a900473ffffffffffffffffffffffffffffffffffffffff1673ffffffffffffffffffffffffffffffffffffffff163373ffffffffffffffffffffffffffffffffffffffff1614610572576040517f08c379a00000000000000000000000000000000000000000000000000000000081526004018080602001828103825260178152602001807f4f4e4c595f43414e4449444154455f474f5645524e4f5200000000000000000081525060200191505060405180910390fd5b61059f8160010160009054906101000a900473ffffffffffffffffffffffffffffffffffffffff16610a67565b60008160010160006101000a81548173ffffffffffffffffffffffffffffffffffffffff021916908373ffffffffffffffffffffffffffffffffffffffff1602179055507fcfb473e6c03f9a29ddaf990e736fa3de5188a0bd85d684f5b6e164ebfbfff5d233604051808273ffffffffffffffffffffffffffffffffffffffff1673ffffffffffffffffffffffffffffffffffffffff16815260200191505060405180910390a150565b610652336107fc565b6106c4576040517f08c379a000000000000000000000000000000000000000000000000000000000815260040180806020018281038252600f8152602001807f4f4e4c595f474f5645524e414e4345000000000000000000000000000000000081525060200191505060405180910390fd5b60006106ce61095a565b9050600015156106dd836107fc565b151514610752576040517f08c379a00000000000000000000000000000000000000000000000000000000081526004018080602001828103825260108152602001807f414c52454144595f474f5645524e4f520000000000000000000000000000000081525060200191505060405180910390fd5b818160010160006101000a81548173ffffffffffffffffffffffffffffffffffffffff021916908373ffffffffffffffffffffffffffffffffffffffff1602179055507f6166272c8d3f5f579082f2827532732f97195007983bb5b83ac12c56700b01a682604051808273ffffffffffffffffffffffffffffffffffffffff1673ffffffffffffffffffffffffffffffffffffffff16815260200191505060405180910390a15050565b60008061080761095a565b90508060000160008473ffffffffffffffffffffffffffffffffffffffff1673ffffffffffffffffffffffffffffffffffffffff16815260200190815260200160002060009054906101000a900460ff16915050919050565b610869336107fc565b6108db576040517f08c379a000000000000000000000000000000000000000000000000000000000815260040180806020018281038252600f8152602001807f4f4e4c595f474f5645524e414e4345000000000000000000000000000000000081525060200191505060405180910390fd5b60006108e561095a565b905060008160010160006101000a81548173ffffffffffffffffffffffffffffffffffffffff021916908373ffffffffffffffffffffffffffffffffffffffff1602179055507f7a8dc7dd7fffb43c4807438fa62729225156941e641fd877938f4edade3429f560405160405180910390a150565b60006060610966610b53565b9050600080826040518082805190602001908083835b6020831061099f578051825260208201915060208101905060208303925061097c565b6001836020036101000a03801982511681845116808217855250505050505090500191505090815260200160405180910390209050600115158160010160149054906101000a900460ff16151514610a5f576040517f08c379a000000000000000000000000000000000000000000000000000000000815260040180806020018281038252600f8152602001807f4e4f545f494e495449414c495a4544000000000000000000000000000000000081525060200191505060405180910390fd5b809250505090565b60001515610a74826107fc565b151514610ae9576040517f08c379a00000000000000000000000000000000000000000000000000000000081526004018080602001828103825260108152602001807f414c52454144595f474f5645524e4f520000000000000000000000000000000081525060200191505060405180910390fd5b6000610af361095a565b905060018160000160008473ffffffffffffffffffffffffffffffffffffffff1673ffffffffffffffffffffffffffffffffffffffff16815260200190815260200160002060006101000a81548160ff0219169083151502179055505050565b6060604051806060016040528060278152602001610b746027913990509056fe537461726b45782e50726f78792e323031392e476f7665726e6f7273496e666f726d6174696f6ea265627a7a7231582037fb0c7e9dc9010883da67bae19ee4c597a2e6f5b83367b244abc8d37ff61e4d64736f6c63430005100032",
  "source": "pragma solidity ^0.5.2;\n\nimport \"../components/Governance.sol\";\n\n/**\n  The Proxy contract is governed by one or more Governors of which the initial one is the\n  deployer of the contract.\n\n  A governor has the sole authority to perform the following operations:\n\n  1. Nominate additional governors (:sol:func:`proxyNominateNewGovernor`)\n  2. Remove other governors (:sol:func:`proxyRemoveGovernor`)\n  3. Add new `implementations` (proxied contracts)\n  4. Remove (new or old) `implementations`\n  5. Update `implementations` after a timelock allows it\n\n  Adding governors is performed in a two step procedure:\n\n  1. First, an existing governor nominates a new governor (:sol:func:`proxyNominateNewGovernor`)\n  2. Then, the new governor must accept governance to become a governor (:sol:func:`proxyAcceptGovernance`)\n\n  This two step procedure ensures that a governor public key cannot be nominated unless there is an\n  entity that has the corresponding private key. This is intended to prevent errors in the addition\n  process.\n\n  The governor private key should typically be held in a secure cold wallet or managed via a\n  multi-sig contract.\n*/\n/*\n  Implements Governance for the proxy contract.\n  It is a thin wrapper to the Governance contract,\n  which is needed so that it can have non-colliding function names,\n  and a specific tag (key) to allow unique state storage.\n*/\ncontract ProxyGovernance is Governance {\n\n    // The tag is the string key that is used in the Governance storage mapping.\n    string public constant PROXY_GOVERNANCE_TAG = \"StarkEx.Proxy.2019.GovernorsInformation\";\n\n    function getGovernanceTag()\n        internal\n        view\n        returns (string memory tag) {\n        tag = PROXY_GOVERNANCE_TAG;\n    }\n\n    function proxyIsGovernor(address testGovernor) external view returns (bool) {\n        return isGovernor(testGovernor);\n    }\n\n    function proxyNominateNewGovernor(address newGovernor) external {\n        nominateNewGovernor(newGovernor);\n    }\n\n    function proxyRemoveGovernor(address governorForRemoval) external {\n        removeGovernor(governorForRemoval);\n    }\n\n    function proxyAcceptGovernance()\n        external\n    {\n        acceptGovernance();\n    }\n\n    function proxyCancelNomination() external {\n        cancelNomination();\n    }\n}\n",
  "sourcePath": "/Users/gokulalex/Apps/eth_apps/ErgoNet/starkex-contracts/scalable-dex/contracts/src/upgrade/ProxyGovernance.sol",
  "compiler": {
    "name": "solc",
    "version": "0.5.16+commit.9c3226ce.Emscripten.clang"
  },
  "schemaVersion": "3.3.1",
  "updatedAt": "2020-10-26T03:37:13.519Z",
  "devdoc": {
    "methods": {}
  },
  "userdoc": {
    "methods": {},
    "notice": "The Proxy contract is governed by one or more Governors of which the initial one is the deployer of the contract. A governor has the sole authority to perform the following operations: 1. Nominate additional governors (:sol:func:`proxyNominateNewGovernor`) 2. Remove other governors (:sol:func:`proxyRemoveGovernor`) 3. Add new `implementations` (proxied contracts) 4. Remove (new or old) `implementations` 5. Update `implementations` after a timelock allows it Adding governors is performed in a two step procedure: 1. First, an existing governor nominates a new governor (:sol:func:`proxyNominateNewGovernor`) 2. Then, the new governor must accept governance to become a governor (:sol:func:`proxyAcceptGovernance`) This two step procedure ensures that a governor public key cannot be nominated unless there is an entity that has the corresponding private key. This is intended to prevent errors in the addition process. The governor private key should typically be held in a secure cold wallet or managed via a multi-sig contract."
  }
}