{
  "contractName": "Tokens",
  "abi": [
    {
      "anonymous": false,
      "inputs": [
        {
          "indexed": false,
          "internalType": "address",
          "name": "tokenAdmin",
          "type": "address"
        }
      ],
      "name": "LogTokenAdminAdded",
      "type": "event"
    },
    {
      "anonymous": false,
      "inputs": [
        {
          "indexed": false,
          "internalType": "address",
          "name": "tokenAdmin",
          "type": "address"
        }
      ],
      "name": "LogTokenAdminRemoved",
      "type": "event"
    },
    {
      "anonymous": false,
      "inputs": [
        {
          "indexed": false,
          "internalType": "uint256",
          "name": "tokenId",
          "type": "uint256"
        },
        {
          "indexed": false,
          "internalType": "bytes",
          "name": "assetData",
          "type": "bytes"
        }
      ],
      "name": "LogTokenRegistered",
      "type": "event"
    },
    {
      "constant": true,
      "inputs": [],
      "name": "DEPOSIT_CANCEL_DELAY",
      "outputs": [
        {
          "internalType": "uint256",
          "name": "",
          "type": "uint256"
        }
      ],
      "payable": false,
      "stateMutability": "view",
      "type": "function"
    },
    {
      "constant": true,
      "inputs": [],
      "name": "FREEZE_GRACE_PERIOD",
      "outputs": [
        {
          "internalType": "uint256",
          "name": "",
          "type": "uint256"
        }
      ],
      "payable": false,
      "stateMutability": "view",
      "type": "function"
    },
    {
      "constant": true,
      "inputs": [],
      "name": "MAX_VERIFIER_COUNT",
      "outputs": [
        {
          "internalType": "uint256",
          "name": "",
          "type": "uint256"
        }
      ],
      "payable": false,
      "stateMutability": "view",
      "type": "function"
    },
    {
      "constant": true,
      "inputs": [],
      "name": "UNFREEZE_DELAY",
      "outputs": [
        {
          "internalType": "uint256",
          "name": "",
          "type": "uint256"
        }
      ],
      "payable": false,
      "stateMutability": "view",
      "type": "function"
    },
    {
      "constant": true,
      "inputs": [],
      "name": "VERIFIER_REMOVAL_DELAY",
      "outputs": [
        {
          "internalType": "uint256",
          "name": "",
          "type": "uint256"
        }
      ],
      "payable": false,
      "stateMutability": "view",
      "type": "function"
    },
    {
      "constant": false,
      "inputs": [
        {
          "internalType": "address",
          "name": "newAdmin",
          "type": "address"
        }
      ],
      "name": "registerTokenAdmin",
      "outputs": [],
      "payable": false,
      "stateMutability": "nonpayable",
      "type": "function"
    },
    {
      "constant": false,
      "inputs": [
        {
          "internalType": "address",
          "name": "oldAdmin",
          "type": "address"
        }
      ],
      "name": "unregisterTokenAdmin",
      "outputs": [],
      "payable": false,
      "stateMutability": "nonpayable",
      "type": "function"
    },
    {
      "constant": true,
      "inputs": [
        {
          "internalType": "address",
          "name": "testedAdmin",
          "type": "address"
        }
      ],
      "name": "isTokenAdmin",
      "outputs": [
        {
          "internalType": "bool",
          "name": "",
          "type": "bool"
        }
      ],
      "payable": false,
      "stateMutability": "view",
      "type": "function"
    },
    {
      "constant": false,
      "inputs": [
        {
          "internalType": "uint256",
          "name": "tokenId",
          "type": "uint256"
        },
        {
          "internalType": "bytes",
          "name": "assetData",
          "type": "bytes"
        },
        {
          "internalType": "uint256",
          "name": "quantum",
          "type": "uint256"
        }
      ],
      "name": "registerToken",
      "outputs": [],
      "payable": false,
      "stateMutability": "nonpayable",
      "type": "function"
    },
    {
      "constant": true,
      "inputs": [
        {
          "internalType": "uint256",
          "name": "tokenId",
          "type": "uint256"
        }
      ],
      "name": "getQuantum",
      "outputs": [
        {
          "internalType": "uint256",
          "name": "quantum",
          "type": "uint256"
        }
      ],
      "payable": false,
      "stateMutability": "view",
      "type": "function"
    },
    {
      "constant": true,
      "inputs": [
        {
          "internalType": "uint256",
          "name": "tokenId",
          "type": "uint256"
        }
      ],
      "name": "getAssetData",
      "outputs": [
        {
          "internalType": "bytes",
          "name": "assetData",
          "type": "bytes"
        }
      ],
      "payable": false,
      "stateMutability": "view",
      "type": "function"
    }
  ],
  "bytecode": "0x608060405234801561001057600080fd5b506110a0806100206000396000f3fe608060405234801561001057600080fd5b50600436106100a85760003560e01c8063a2bdde3d11610071578063a2bdde3d146101f2578063a6fa6e901461024e578063b766311214610292578063d88d8b38146102b0578063dd7202d81461033d578063e6de62821461037f576100a8565b8062717542146100ad5780630b3a2d21146100cb57806377e84e0d1461010f5780637d1108f51461012d578063993f3639146101d4575b600080fd5b6100b561039d565b6040518082815260200191505060405180910390f35b61010d600480360360208110156100e157600080fd5b81019080803573ffffffffffffffffffffffffffffffffffffffff1690602001909291905050506103a4565b005b610117610412565b6040518082815260200191505060405180910390f35b6101596004803603602081101561014357600080fd5b8101908080359060200190929190505050610419565b6040518080602001828103825283818151815260200191508051906020019080838360005b8381101561019957808201518184015260208101905061017e565b50505050905090810190601f1680156101c65780820380516001836020036101000a031916815260200191505b509250505060405180910390f35b6101dc610561565b6040518082815260200191505060405180910390f35b6102346004803603602081101561020857600080fd5b81019080803573ffffffffffffffffffffffffffffffffffffffff169060200190929190505050610569565b604051808215151515815260200191505060405180910390f35b6102906004803603602081101561026457600080fd5b81019080803573ffffffffffffffffffffffffffffffffffffffff1690602001909291905050506105bf565b005b61029a61062d565b6040518082815260200191505060405180910390f35b61033b600480360360608110156102c657600080fd5b8101908080359060200190929190803590602001906401000000008111156102ed57600080fd5b8201836020820111156102ff57600080fd5b8035906020019184600183028401116401000000008311171561032157600080fd5b909192939192939080359060200190929190505050610639565b005b6103696004803603602081101561035357600080fd5b8101908080359060200190929190505050610ed3565b6040518082815260200191505060405180910390f35b610387610f83565b6040518082815260200191505060405180910390f35b62093a8081565b6040517f08c379a000000000000000000000000000000000000000000000000000000000815260040180806020018281038252600d8152602001807f554e494d504c454d454e5445440000000000000000000000000000000000000081525060200191505060405180910390fd5b6201518081565b60606015600083815260200190815260200160002060009054906101000a900460ff166104ae576040517f08c379a00000000000000000000000000000000000000000000000000000000081526004018080602001828103825260128152602001807f544f4b454e5f554e52454749535445524544000000000000000000000000000081525060200191505060405180910390fd5b601460008381526020019081526020016000208054600181600116156101000203166002900480601f0160208091040260200160405190810160405280929190818152602001828054600181600116156101000203166002900480156105555780601f1061052a57610100808354040283529160200191610555565b820191906000526020600020905b81548152906001019060200180831161053857829003601f168201915b50505050509050919050565b6301e1338081565b6000601160008373ffffffffffffffffffffffffffffffffffffffff1673ffffffffffffffffffffffffffffffffffffffff16815260200190815260200160002060009054906101000a900460ff169050919050565b6040517f08c379a000000000000000000000000000000000000000000000000000000000815260040180806020018281038252600d8152602001807f554e494d504c454d454e5445440000000000000000000000000000000000000081525060200191505060405180910390fd5b621baf8062093a800181565b601160003373ffffffffffffffffffffffffffffffffffffffff1673ffffffffffffffffffffffffffffffffffffffff16815260200190815260200160002060009054906101000a900460ff166106f8576040517f08c379a00000000000000000000000000000000000000000000000000000000081526004018080602001828103825260118152602001807f4f4e4c595f544f4b454e535f41444d494e00000000000000000000000000000081525060200191505060405180910390fd5b600015156015600086815260200190815260200160002060009054906101000a900460ff16151514610792576040517f08c379a00000000000000000000000000000000000000000000000000000000081526004018080602001828103825260108152602001807f544f4b454e5f524547495354455245440000000000000000000000000000000081525060200191505060405180910390fd5b7f08000000000000110000000000000000000000000000000000000000000000018410610827576040517f08c379a00000000000000000000000000000000000000000000000000000000081526004018080602001828103825260108152602001807f494e56414c49445f544f4b454e5f49440000000000000000000000000000000081525060200191505060405180910390fd5b6000811161089d576040517f08c379a000000000000000000000000000000000000000000000000000000000815260040180806020018281038252600f8152602001807f494e56414c49445f5155414e54554d000000000000000000000000000000000081525060200191505060405180910390fd5b6fffffffffffffffffffffffffffffffff811115610923576040517f08c379a000000000000000000000000000000000000000000000000000000000815260040180806020018281038252600f8152602001807f494e56414c49445f5155414e54554d000000000000000000000000000000000081525060200191505060405180910390fd5b600483839050101561099d576040517f08c379a00000000000000000000000000000000000000000000000000000000081526004018080602001828103825260148152602001807f494e56414c49445f41535345545f535452494e4700000000000000000000000081525060200191505060405180910390fd5b60007f03ffffffffffffffffffffffffffffffffffffffffffffffffffffffffffffff848484604051602001808484808284378083019250505082815260200193505050506040516020818303038152906040528051906020012060001c169050808514610a73576040517f08c379a00000000000000000000000000000000000000000000000000000000081526004018080602001828103825260108152602001807f494e56414c49445f544f4b454e5f49440000000000000000000000000000000081525060200191505060405180910390fd5b60016015600087815260200190815260200160002060006101000a81548160ff0219169083151502179055508383601460008881526020019081526020016000209190610ac1929190610fc6565b508160166000878152602001908152602001600020819055506000610b2985858080601f016020809104026020016040519081016040528093929190818152602001838380828437600081840152601f19601f82011690508083019250505050505050610f88565b905060405180807f4552433230546f6b656e28616464726573732900000000000000000000000000815250601301905060405180910390207bffffffffffffffffffffffffffffffffffffffffffffffffffffffff1916817bffffffffffffffffffffffffffffffffffffffffffffffffffffffff19161415610cf85760248585905014610c1f576040517f08c379a00000000000000000000000000000000000000000000000000000000081526004018080602001828103825260148152602001807f494e56414c49445f41535345545f535452494e4700000000000000000000000081525060200191505060405180910390fd5b6000610c7386868080601f016020809104026020016040519081016040528093929190818152602001838380828437600081840152601f19601f820116905080830192505050505050506004602001610fb8565b90506000813b905060008111610cf1576040517f08c379a00000000000000000000000000000000000000000000000000000000081526004018080602001828103825260118152602001807f4241445f45524332305f4144445245535300000000000000000000000000000081525060200191505060405180910390fd5b5050610e60565b60405180807f4554482829000000000000000000000000000000000000000000000000000000815250600501905060405180910390207bffffffffffffffffffffffffffffffffffffffffffffffffffffffff1916817bffffffffffffffffffffffffffffffffffffffffffffffffffffffff19161415610df15760048585905014610dec576040517f08c379a00000000000000000000000000000000000000000000000000000000081526004018080602001828103825260148152602001807f494e56414c49445f41535345545f535452494e4700000000000000000000000081525060200191505060405180910390fd5b610e5f565b6040517f08c379a00000000000000000000000000000000000000000000000000000000081526004018080602001828103825260168152602001807f554e535550504f525445445f544f4b454e5f545950450000000000000000000081525060200191505060405180910390fd5b5b7f4d2c7bfd8df1ba4f331f1abd2562bf3088e8b378c7dd1308113a82c64e518dbf86868660405180848152602001806020018281038252848482818152602001925080828437600081840152601f19601f82011690508083019250505094505050505060405180910390a1505050505050565b60006015600083815260200190815260200160002060009054906101000a900460ff16610f68576040517f08c379a00000000000000000000000000000000000000000000000000000000081526004018080602001828103825260128152602001807f544f4b454e5f554e52454749535445524544000000000000000000000000000081525060200191505060405180910390fd5b60166000838152602001908152602001600020549050919050565b604081565b600060208201517fffffffff00000000000000000000000000000000000000000000000000000000169050919050565b600081830151905092915050565b828054600181600116156101000203166002900490600052602060002090601f016020900481019282601f1061100757803560ff1916838001178555611035565b82800160010185558215611035579182015b82811115611034578235825591602001919060010190611019565b5b5090506110429190611046565b5090565b61106891905b8082111561106457600081600090555060010161104c565b5090565b9056fea265627a7a723158203de9a67160a3d05e1b1d3880f57eb239898d6889b0f733837d61abd28a75486b64736f6c63430005100032",
  "source": "pragma solidity ^0.5.2;\n\nimport \"../libraries/LibConstants.sol\";\nimport \"../interfaces/MTokens.sol\";\nimport \"../interfaces/MGovernance.sol\";\nimport \"../tokens/ERC20/IERC20.sol\";\nimport \"./MainStorage.sol\";\n\n/**\n  Registration of a new token (:sol:func:`registerToken`) entails defining a new token ID\n  identifying the token within the system, and associating it with an `assetData` array of bytes and\n  a quantization factor (`quantum`).\n\n  The `assetData` array defines the token type (ERC20 or Eth) encoded as a 4-byte `selector` and in\n  the case of ERC20, followed by the 32-byte address of the ERC20 contract.\n\n  The `selector` arrays are defined as follows:\n\n  `ERC20_SELECTOR = bytes4(keccak256(\"ERC20Token(address)\"));`\n\n  `ETH_SELECTOR = bytes4(keccak256(\"ETH()\"));`\n\n  The `quantum` quantization factor defines the multiplicative transformation from the native token\n  denomination as a 256b unsigned integer to a 63b unsigned integer representation as used by the\n  Stark exchange. Only amounts in the native representation that represent an integer number of\n  quanta are allowed in the system.\n\n  The token ID is restricted to be the result of a hash of the `assetData` and the `quantum` masked\n  to 250 bits (to be less than the prime used) according to the following formula:\n\n  ``uint256 tokenID = uint256(keccak256(abi.encodePacked(assetData, quantum))) & 0x03FFFFFFFFFFFFFFFFFFFFFFFFFFFFFFFFFFFFFFFFFFFFFFFFFFFFFFFFFFFFFF;``\n\n  Once registered, tokens cannot be removed from the system, as their IDs may be used by off-chain\n  accounts.\n\n  New tokens may only be registered by a Token Administrator. A Token Administrator may be instantly\n  appointed or removed by the contract Governor (see :sol:mod:`MainGovernance`). Typically, the\n  Token Administrator's private key should be kept in a cold wallet.\n*/\n/*\n  Implements MTokens.\n  Uses MGovernance.\n*/\ncontract Tokens is MainStorage, LibConstants, MGovernance, MTokens {\n    bytes4 constant internal ERC20_SELECTOR = bytes4(keccak256(\"ERC20Token(address)\"));\n    bytes4 constant internal ETH_SELECTOR = bytes4(keccak256(\"ETH()\"));\n\n    // The selector follows the 0x20 bytes assetData.length field.\n    uint256 constant internal SELECTOR_OFFSET = 0x20;\n    uint256 constant internal SELECTOR_SIZE = 4;\n    uint256 constant internal ERC20_ADDRESS_OFFSET = SELECTOR_OFFSET + SELECTOR_SIZE;\n\n\n    event LogTokenRegistered(uint256 tokenId, bytes assetData);\n    event LogTokenAdminAdded(address tokenAdmin);\n    event LogTokenAdminRemoved(address tokenAdmin);\n\n    modifier onlyTokensAdmin()\n    {\n        require(tokenAdmins[msg.sender], \"ONLY_TOKENS_ADMIN\");\n        _;\n    }\n\n    function registerTokenAdmin(address newAdmin)\n        external\n        onlyGovernance()\n    {\n        tokenAdmins[newAdmin] = true;\n        emit LogTokenAdminAdded(newAdmin);\n    }\n\n    function unregisterTokenAdmin(address oldAdmin)\n        external\n        onlyGovernance()\n    {\n        tokenAdmins[oldAdmin] = false;\n        emit LogTokenAdminRemoved(oldAdmin);\n    }\n\n    function isTokenAdmin(address testedAdmin) external view returns (bool) {\n        return tokenAdmins[testedAdmin];\n    }\n\n    /*\n      Safe wrapper around ERC20 calls.\n      This is required because many deployed ERC20 contracts don't return a value.\n      See https://github.com/ethereum/solidity/issues/4116.\n    */\n    function safeERC20Call(address tokenAddress, bytes memory callData) internal {\n        // solium-disable-next-line security/no-low-level-calls\n        (bool success, bytes memory returndata) = address(tokenAddress).call(callData);\n        require(success, string(returndata));\n\n        if (returndata.length > 0) {\n            require(abi.decode(returndata, (bool)), \"ERC20_OPERATION_FAILED\");\n        }\n    }\n\n\n    function extractUint256(bytes memory assetData, uint256 offset)\n        internal pure returns (uint256 res)\n    {\n        // solium-disable-next-line security/no-inline-assembly\n        assembly {\n           res := mload(add(assetData, offset))\n        }\n    }\n\n    /*\n      Extract the tokenSelector from assetData.\n\n      Works like bytes4 tokenSelector = abi.decode(assetData, (bytes4))\n      but does not revert when assetData.length < 0x20.\n    */\n    function extractSelector(bytes memory assetData)\n        internal pure returns (bytes4 selector)\n    {\n        // solium-disable-next-line security/no-inline-assembly\n        assembly {\n           selector := and(0xffffffff00000000000000000000000000000000000000000000000000000000,\n                           mload(add(assetData, 0x20)))\n        }\n    }\n\n    /*\n      Registers a new asset to the system.\n      Once added, it can not be removed and there is a limited number\n      of slots available.\n    */\n    function registerToken(\n        uint256 tokenId,\n        bytes calldata assetData,\n        uint256 quantum\n    )\n        external\n        onlyTokensAdmin()\n    {\n        // Make sure it is not invalid or already registered.\n        require(registeredTokenId[tokenId] == false, \"TOKEN_REGISTERED\");\n        require(tokenId < K_MODULUS, \"INVALID_TOKEN_ID\");\n        require(quantum > 0, \"INVALID_QUANTUM\");\n        require(quantum <= MAX_QUANTUM, \"INVALID_QUANTUM\");\n        require(assetData.length >= SELECTOR_SIZE, \"INVALID_ASSET_STRING\");\n\n        // Require that the tokenId is the hash of the assetData and quantum truncated to 250 bits.\n        uint256 enforcedId = uint256(keccak256(abi.encodePacked(assetData, quantum))) &\n            0x03FFFFFFFFFFFFFFFFFFFFFFFFFFFFFFFFFFFFFFFFFFFFFFFFFFFFFFFFFFFFFF;\n        require(tokenId == enforcedId, \"INVALID_TOKEN_ID\");\n\n        // Add token to the in-storage structures.\n        registeredTokenId[tokenId] = true;\n        tokenIdToAssetData[tokenId] = assetData;\n        tokenIdToQuantum[tokenId] = quantum;\n\n        bytes4 tokenSelector = extractSelector(assetData);\n        if (tokenSelector == ERC20_SELECTOR) {\n            require(assetData.length == 0x24, \"INVALID_ASSET_STRING\");\n            uint256 tokenAddress = extractUint256(assetData, ERC20_ADDRESS_OFFSET);\n\n            uint256 erc20ConstractSize;\n            // solium-disable-next-line security/no-inline-assembly\n            assembly {\n                erc20ConstractSize := extcodesize(tokenAddress)\n            }\n            // Check erc20ConstractSize before the approve call to get a meaningful error\n            // message if the address is invalid.\n            require(erc20ConstractSize > 0, \"BAD_ERC20_ADDRESS\");\n        } else if (tokenSelector == ETH_SELECTOR) {\n            require(assetData.length == 4, \"INVALID_ASSET_STRING\");\n        } else {\n            revert(\"UNSUPPORTED_TOKEN_TYPE\");\n        }\n\n        // Log the registration of a new token.\n        emit LogTokenRegistered(tokenId, assetData);\n    }\n\n    function getQuantum(uint256 tokenId)\n        public view\n        returns (uint256 quantum)\n    {\n        // Verify that the registration is set and valid.\n        require(registeredTokenId[tokenId], \"TOKEN_UNREGISTERED\");\n\n        // Retrieve registration.\n        quantum = tokenIdToQuantum[tokenId];\n    }\n\n    function getAssetData(uint256 tokenId)\n        public view\n        returns (bytes memory assetData)\n    {\n        // Verify that the registration is set and valid.\n        require(registeredTokenId[tokenId], \"TOKEN_UNREGISTERED\");\n\n        // Retrieve registration.\n        assetData = tokenIdToAssetData[tokenId];\n    }\n\n    function toQuantized(\n        uint256 tokenId,\n        uint256 amount\n    )\n        internal view\n        returns (uint256 quantizedAmount)\n    {\n        uint256 quantum = getQuantum(tokenId);\n        require(amount % quantum == 0, \"INVALID_AMOUNT\");\n        quantizedAmount = amount / quantum;\n    }\n\n    function fromQuantized(\n        uint256 tokenId,\n        uint256 quantizedAmount\n    )\n        internal view\n        returns (uint256 amount)\n    {\n        uint256 quantum = getQuantum(tokenId);\n        amount = quantizedAmount * quantum;\n        require(amount / quantum == quantizedAmount, \"DEQUANTIZATION_OVERFLOW\");\n    }\n\n    function isEther(\n        uint256 tokenId)\n        internal view returns (bool)\n    {\n        bytes memory assetData = getAssetData(tokenId);\n        bytes4 tokenSelector = extractSelector(assetData);\n\n        return tokenSelector == ETH_SELECTOR;\n    }\n\n    /*\n      Transfers funds from msg.sender to the exchange.\n    */\n    function transferIn(\n        uint256 tokenId,\n        uint256 quantizedAmount\n    )\n        internal\n    {\n        bytes memory assetData = getAssetData(tokenId);\n        uint256 amount = fromQuantized(tokenId, quantizedAmount);\n\n        bytes4 tokenSelector = extractSelector(assetData);\n        if (tokenSelector == ERC20_SELECTOR) {\n            uint256 tokenAddress = extractUint256(assetData, ERC20_ADDRESS_OFFSET);\n            safeERC20Call(\n                address(tokenAddress),\n                abi.encodeWithSelector(\n                IERC20(0).transferFrom.selector, msg.sender, address(this), amount));\n        } else if (tokenSelector == ETH_SELECTOR) {\n            require(msg.value == amount, \"INCORRECT_DEPOSIT_AMOUNT\");\n        } else {\n            revert(\"UNSUPPORTED_TOKEN_TYPE\");\n        }\n    }\n\n    /*\n      Transfers funds from the exchange to msg.sender.\n    */\n    function transferOut(\n        uint256 tokenId,\n        uint256 quantizedAmount\n    )\n        internal\n    {\n        bytes memory assetData = getAssetData(tokenId);\n        uint256 amount = fromQuantized(tokenId, quantizedAmount);\n\n        bytes4 tokenSelector = extractSelector(assetData);\n        if (tokenSelector == ERC20_SELECTOR) {\n            uint256 tokenAddress = extractUint256(assetData, ERC20_ADDRESS_OFFSET);\n            safeERC20Call(\n                address(tokenAddress),\n                abi.encodeWithSelector(IERC20(0).transfer.selector, msg.sender, amount));\n        } else if (tokenSelector == ETH_SELECTOR) {\n            msg.sender.transfer(amount);\n        } else {\n            revert(\"UNSUPPORTED_TOKEN_TYPE\");\n        }\n    }\n}\n",
  "sourcePath": "/Users/gokulalex/Apps/eth_apps/ErgoNet/starkex-contracts/scalable-dex/contracts/src/components/Tokens.sol",
  "compiler": {
    "name": "solc",
    "version": "0.5.16+commit.9c3226ce.Emscripten.clang"
  },
  "schemaVersion": "3.3.1",
  "updatedAt": "2020-10-26T03:37:13.436Z",
  "devdoc": {
    "methods": {}
  },
  "userdoc": {
    "methods": {},
    "notice": "Registration of a new token (:sol:func:`registerToken`) entails defining a new token ID identifying the token within the system, and associating it with an `assetData` array of bytes and a quantization factor (`quantum`). The `assetData` array defines the token type (ERC20 or Eth) encoded as a 4-byte `selector` and in the case of ERC20, followed by the 32-byte address of the ERC20 contract. The `selector` arrays are defined as follows: `ERC20_SELECTOR = bytes4(keccak256(\"ERC20Token(address)\"));` `ETH_SELECTOR = bytes4(keccak256(\"ETH()\"));` The `quantum` quantization factor defines the multiplicative transformation from the native token denomination as a 256b unsigned integer to a 63b unsigned integer representation as used by the Stark exchange. Only amounts in the native representation that represent an integer number of quanta are allowed in the system. The token ID is restricted to be the result of a hash of the `assetData` and the `quantum` masked to 250 bits (to be less than the prime used) according to the following formula: ``uint256 tokenID = uint256(keccak256(abi.encodePacked(assetData, quantum))) & 0x03FFFFFFFFFFFFFFFFFFFFFFFFFFFFFFFFFFFFFFFFFFFFFFFFFFFFFFFFFFFFFF;`` Once registered, tokens cannot be removed from the system, as their IDs may be used by off-chain accounts. New tokens may only be registered by a Token Administrator. A Token Administrator may be instantly appointed or removed by the contract Governor (see :sol:mod:`MainGovernance`). Typically, the Token Administrator's private key should be kept in a cold wallet."
  }
}