{
  "contractName": "StarkExchange",
  "abi": [
    {
      "inputs": [
        {
          "internalType": "contract IFactRegistry",
          "name": "escapeVerifier",
          "type": "address"
        },
        {
          "internalType": "uint256",
          "name": "initialSequenceNumber",
          "type": "uint256"
        },
        {
          "internalType": "uint256",
          "name": "initialVaultRoot",
          "type": "uint256"
        },
        {
          "internalType": "uint256",
          "name": "initialOrderRoot",
          "type": "uint256"
        },
        {
          "internalType": "uint256",
          "name": "initialVaultTreeHeight",
          "type": "uint256"
        },
        {
          "internalType": "uint256",
          "name": "initialOrderTreeHeight",
          "type": "uint256"
        }
      ],
      "payable": false,
      "stateMutability": "nonpayable",
      "type": "constructor"
    },
    {
      "anonymous": false,
      "inputs": [
        {
          "indexed": false,
          "internalType": "uint256",
          "name": "starkKey",
          "type": "uint256"
        },
        {
          "indexed": false,
          "internalType": "uint256",
          "name": "vaultId",
          "type": "uint256"
        },
        {
          "indexed": false,
          "internalType": "uint256",
          "name": "tokenId",
          "type": "uint256"
        },
        {
          "indexed": false,
          "internalType": "uint256",
          "name": "nonQuantizedAmount",
          "type": "uint256"
        },
        {
          "indexed": false,
          "internalType": "uint256",
          "name": "quantizedAmount",
          "type": "uint256"
        }
      ],
      "name": "LogDeposit",
      "type": "event"
    },
    {
      "anonymous": false,
      "inputs": [
        {
          "indexed": false,
          "internalType": "uint256",
          "name": "starkKey",
          "type": "uint256"
        },
        {
          "indexed": false,
          "internalType": "uint256",
          "name": "vaultId",
          "type": "uint256"
        },
        {
          "indexed": false,
          "internalType": "uint256",
          "name": "tokenId",
          "type": "uint256"
        }
      ],
      "name": "LogDepositCancel",
      "type": "event"
    },
    {
      "anonymous": false,
      "inputs": [
        {
          "indexed": false,
          "internalType": "uint256",
          "name": "starkKey",
          "type": "uint256"
        },
        {
          "indexed": false,
          "internalType": "uint256",
          "name": "vaultId",
          "type": "uint256"
        },
        {
          "indexed": false,
          "internalType": "uint256",
          "name": "tokenId",
          "type": "uint256"
        },
        {
          "indexed": false,
          "internalType": "uint256",
          "name": "nonQuantizedAmount",
          "type": "uint256"
        },
        {
          "indexed": false,
          "internalType": "uint256",
          "name": "quantizedAmount",
          "type": "uint256"
        }
      ],
      "name": "LogDepositCancelReclaimed",
      "type": "event"
    },
    {
      "anonymous": false,
      "inputs": [],
      "name": "LogFrozen",
      "type": "event"
    },
    {
      "anonymous": false,
      "inputs": [
        {
          "indexed": false,
          "internalType": "uint256",
          "name": "starkKey",
          "type": "uint256"
        },
        {
          "indexed": false,
          "internalType": "uint256",
          "name": "vaultId",
          "type": "uint256"
        }
      ],
      "name": "LogFullWithdrawalRequest",
      "type": "event"
    },
    {
      "anonymous": false,
      "inputs": [
        {
          "indexed": false,
          "internalType": "address",
          "name": "acceptedGovernor",
          "type": "address"
        }
      ],
      "name": "LogNewGovernorAccepted",
      "type": "event"
    },
    {
      "anonymous": false,
      "inputs": [
        {
          "indexed": false,
          "internalType": "address",
          "name": "nominatedGovernor",
          "type": "address"
        }
      ],
      "name": "LogNominatedGovernor",
      "type": "event"
    },
    {
      "anonymous": false,
      "inputs": [],
      "name": "LogNominationCancelled",
      "type": "event"
    },
    {
      "anonymous": false,
      "inputs": [
        {
          "indexed": false,
          "internalType": "address",
          "name": "operator",
          "type": "address"
        }
      ],
      "name": "LogOperatorAdded",
      "type": "event"
    },
    {
      "anonymous": false,
      "inputs": [
        {
          "indexed": false,
          "internalType": "address",
          "name": "operator",
          "type": "address"
        }
      ],
      "name": "LogOperatorRemoved",
      "type": "event"
    },
    {
      "anonymous": false,
      "inputs": [
        {
          "indexed": false,
          "internalType": "address",
          "name": "removedGovernor",
          "type": "address"
        }
      ],
      "name": "LogRemovedGovernor",
      "type": "event"
    },
    {
      "anonymous": false,
      "inputs": [
        {
          "indexed": false,
          "internalType": "uint256",
          "name": "sequenceNumber",
          "type": "uint256"
        },
        {
          "indexed": false,
          "internalType": "uint256",
          "name": "batchId",
          "type": "uint256"
        },
        {
          "indexed": false,
          "internalType": "uint256",
          "name": "vaultRoot",
          "type": "uint256"
        },
        {
          "indexed": false,
          "internalType": "uint256",
          "name": "orderRoot",
          "type": "uint256"
        }
      ],
      "name": "LogRootUpdate",
      "type": "event"
    },
    {
      "anonymous": false,
      "inputs": [
        {
          "indexed": false,
          "internalType": "address",
          "name": "tokenAdmin",
          "type": "address"
        }
      ],
      "name": "LogTokenAdminAdded",
      "type": "event"
    },
    {
      "anonymous": false,
      "inputs": [
        {
          "indexed": false,
          "internalType": "address",
          "name": "tokenAdmin",
          "type": "address"
        }
      ],
      "name": "LogTokenAdminRemoved",
      "type": "event"
    },
    {
      "anonymous": false,
      "inputs": [
        {
          "indexed": false,
          "internalType": "uint256",
          "name": "tokenId",
          "type": "uint256"
        },
        {
          "indexed": false,
          "internalType": "bytes",
          "name": "assetData",
          "type": "bytes"
        }
      ],
      "name": "LogTokenRegistered",
      "type": "event"
    },
    {
      "anonymous": false,
      "inputs": [],
      "name": "LogUnFrozen",
      "type": "event"
    },
    {
      "anonymous": false,
      "inputs": [
        {
          "indexed": false,
          "internalType": "address",
          "name": "userAdmin",
          "type": "address"
        }
      ],
      "name": "LogUserAdminAdded",
      "type": "event"
    },
    {
      "anonymous": false,
      "inputs": [
        {
          "indexed": false,
          "internalType": "address",
          "name": "userAdmin",
          "type": "address"
        }
      ],
      "name": "LogUserAdminRemoved",
      "type": "event"
    },
    {
      "anonymous": false,
      "inputs": [
        {
          "indexed": false,
          "internalType": "address",
          "name": "etherKey",
          "type": "address"
        },
        {
          "indexed": false,
          "internalType": "uint256",
          "name": "starkKey",
          "type": "uint256"
        }
      ],
      "name": "LogUserRegistered",
      "type": "event"
    },
    {
      "anonymous": false,
      "inputs": [
        {
          "indexed": false,
          "internalType": "uint256",
          "name": "starkKey",
          "type": "uint256"
        },
        {
          "indexed": false,
          "internalType": "uint256",
          "name": "tokenId",
          "type": "uint256"
        },
        {
          "indexed": false,
          "internalType": "uint256",
          "name": "nonQuantizedAmount",
          "type": "uint256"
        },
        {
          "indexed": false,
          "internalType": "uint256",
          "name": "quantizedAmount",
          "type": "uint256"
        }
      ],
      "name": "LogUserWithdrawal",
      "type": "event"
    },
    {
      "anonymous": false,
      "inputs": [
        {
          "indexed": false,
          "internalType": "uint256",
          "name": "starkKey",
          "type": "uint256"
        },
        {
          "indexed": false,
          "internalType": "uint256",
          "name": "tokenId",
          "type": "uint256"
        },
        {
          "indexed": false,
          "internalType": "uint256",
          "name": "nonQuantizedAmount",
          "type": "uint256"
        },
        {
          "indexed": false,
          "internalType": "uint256",
          "name": "quantizedAmount",
          "type": "uint256"
        }
      ],
      "name": "LogWithdrawal",
      "type": "event"
    },
    {
      "constant": true,
      "inputs": [],
      "name": "DEPOSIT_CANCEL_DELAY",
      "outputs": [
        {
          "internalType": "uint256",
          "name": "",
          "type": "uint256"
        }
      ],
      "payable": false,
      "stateMutability": "view",
      "type": "function"
    },
    {
      "constant": true,
      "inputs": [],
      "name": "FREEZE_GRACE_PERIOD",
      "outputs": [
        {
          "internalType": "uint256",
          "name": "",
          "type": "uint256"
        }
      ],
      "payable": false,
      "stateMutability": "view",
      "type": "function"
    },
    {
      "constant": true,
      "inputs": [],
      "name": "MAIN_GOVERNANCE_INFO_TAG",
      "outputs": [
        {
          "internalType": "string",
          "name": "",
          "type": "string"
        }
      ],
      "payable": false,
      "stateMutability": "view",
      "type": "function"
    },
    {
      "constant": true,
      "inputs": [],
      "name": "MAX_VERIFIER_COUNT",
      "outputs": [
        {
          "internalType": "uint256",
          "name": "",
          "type": "uint256"
        }
      ],
      "payable": false,
      "stateMutability": "view",
      "type": "function"
    },
    {
      "constant": true,
      "inputs": [],
      "name": "UNFREEZE_DELAY",
      "outputs": [
        {
          "internalType": "uint256",
          "name": "",
          "type": "uint256"
        }
      ],
      "payable": false,
      "stateMutability": "view",
      "type": "function"
    },
    {
      "constant": true,
      "inputs": [],
      "name": "VERIFIER_REMOVAL_DELAY",
      "outputs": [
        {
          "internalType": "uint256",
          "name": "",
          "type": "uint256"
        }
      ],
      "payable": false,
      "stateMutability": "view",
      "type": "function"
    },
    {
      "constant": true,
      "inputs": [],
      "name": "VERSION",
      "outputs": [
        {
          "internalType": "string",
          "name": "",
          "type": "string"
        }
      ],
      "payable": false,
      "stateMutability": "view",
      "type": "function"
    },
    {
      "constant": false,
      "inputs": [
        {
          "internalType": "address",
          "name": "verifier",
          "type": "address"
        }
      ],
      "name": "announceAvailabilityVerifierRemovalIntent",
      "outputs": [],
      "payable": false,
      "stateMutability": "nonpayable",
      "type": "function"
    },
    {
      "constant": false,
      "inputs": [
        {
          "internalType": "address",
          "name": "verifier",
          "type": "address"
        }
      ],
      "name": "announceVerifierRemovalIntent",
      "outputs": [],
      "payable": false,
      "stateMutability": "nonpayable",
      "type": "function"
    },
    {
      "constant": false,
      "inputs": [
        {
          "internalType": "uint256",
          "name": "tokenId",
          "type": "uint256"
        },
        {
          "internalType": "uint256",
          "name": "vaultId",
          "type": "uint256"
        },
        {
          "internalType": "uint256",
          "name": "quantizedAmount",
          "type": "uint256"
        }
      ],
      "name": "deposit",
      "outputs": [],
      "payable": false,
      "stateMutability": "nonpayable",
      "type": "function"
    },
    {
      "constant": false,
      "inputs": [
        {
          "internalType": "uint256",
          "name": "tokenId",
          "type": "uint256"
        },
        {
          "internalType": "uint256",
          "name": "vaultId",
          "type": "uint256"
        }
      ],
      "name": "deposit",
      "outputs": [],
      "payable": true,
      "stateMutability": "payable",
      "type": "function"
    },
    {
      "constant": false,
      "inputs": [
        {
          "internalType": "uint256",
          "name": "tokenId",
          "type": "uint256"
        },
        {
          "internalType": "uint256",
          "name": "vaultId",
          "type": "uint256"
        }
      ],
      "name": "depositCancel",
      "outputs": [],
      "payable": false,
      "stateMutability": "nonpayable",
      "type": "function"
    },
    {
      "constant": false,
      "inputs": [
        {
          "internalType": "uint256",
          "name": "tokenId",
          "type": "uint256"
        },
        {
          "internalType": "uint256",
          "name": "vaultId",
          "type": "uint256"
        }
      ],
      "name": "depositReclaim",
      "outputs": [],
      "payable": false,
      "stateMutability": "nonpayable",
      "type": "function"
    },
    {
      "constant": false,
      "inputs": [
        {
          "internalType": "uint256",
          "name": "starkKey",
          "type": "uint256"
        },
        {
          "internalType": "uint256",
          "name": "vaultId",
          "type": "uint256"
        },
        {
          "internalType": "uint256",
          "name": "tokenId",
          "type": "uint256"
        },
        {
          "internalType": "uint256",
          "name": "quantizedAmount",
          "type": "uint256"
        }
      ],
      "name": "escape",
      "outputs": [],
      "payable": false,
      "stateMutability": "nonpayable",
      "type": "function"
    },
    {
      "constant": false,
      "inputs": [
        {
          "internalType": "uint256",
          "name": "vaultId",
          "type": "uint256"
        }
      ],
      "name": "freezeRequest",
      "outputs": [],
      "payable": false,
      "stateMutability": "nonpayable",
      "type": "function"
    },
    {
      "constant": false,
      "inputs": [
        {
          "internalType": "uint256",
          "name": "vaultId",
          "type": "uint256"
        }
      ],
      "name": "fullWithdrawalRequest",
      "outputs": [],
      "payable": false,
      "stateMutability": "nonpayable",
      "type": "function"
    },
    {
      "constant": true,
      "inputs": [
        {
          "internalType": "uint256",
          "name": "tokenId",
          "type": "uint256"
        }
      ],
      "name": "getAssetData",
      "outputs": [
        {
          "internalType": "bytes",
          "name": "assetData",
          "type": "bytes"
        }
      ],
      "payable": false,
      "stateMutability": "view",
      "type": "function"
    },
    {
      "constant": true,
      "inputs": [
        {
          "internalType": "uint256",
          "name": "starkKey",
          "type": "uint256"
        },
        {
          "internalType": "uint256",
          "name": "tokenId",
          "type": "uint256"
        },
        {
          "internalType": "uint256",
          "name": "vaultId",
          "type": "uint256"
        }
      ],
      "name": "getCancellationRequest",
      "outputs": [
        {
          "internalType": "uint256",
          "name": "request",
          "type": "uint256"
        }
      ],
      "payable": false,
      "stateMutability": "view",
      "type": "function"
    },
    {
      "constant": true,
      "inputs": [
        {
          "internalType": "uint256",
          "name": "starkKey",
          "type": "uint256"
        },
        {
          "internalType": "uint256",
          "name": "tokenId",
          "type": "uint256"
        },
        {
          "internalType": "uint256",
          "name": "vaultId",
          "type": "uint256"
        }
      ],
      "name": "getDepositBalance",
      "outputs": [
        {
          "internalType": "uint256",
          "name": "balance",
          "type": "uint256"
        }
      ],
      "payable": false,
      "stateMutability": "view",
      "type": "function"
    },
    {
      "constant": true,
      "inputs": [
        {
          "internalType": "uint256",
          "name": "starkKey",
          "type": "uint256"
        }
      ],
      "name": "getEtherKey",
      "outputs": [
        {
          "internalType": "address",
          "name": "etherKey",
          "type": "address"
        }
      ],
      "payable": false,
      "stateMutability": "view",
      "type": "function"
    },
    {
      "constant": true,
      "inputs": [
        {
          "internalType": "uint256",
          "name": "starkKey",
          "type": "uint256"
        },
        {
          "internalType": "uint256",
          "name": "vaultId",
          "type": "uint256"
        }
      ],
      "name": "getFullWithdrawalRequest",
      "outputs": [
        {
          "internalType": "uint256",
          "name": "res",
          "type": "uint256"
        }
      ],
      "payable": false,
      "stateMutability": "view",
      "type": "function"
    },
    {
      "constant": true,
      "inputs": [],
      "name": "getLastBatchId",
      "outputs": [
        {
          "internalType": "uint256",
          "name": "batchId",
          "type": "uint256"
        }
      ],
      "payable": false,
      "stateMutability": "view",
      "type": "function"
    },
    {
      "constant": true,
      "inputs": [],
      "name": "getOrderRoot",
      "outputs": [
        {
          "internalType": "uint256",
          "name": "root",
          "type": "uint256"
        }
      ],
      "payable": false,
      "stateMutability": "view",
      "type": "function"
    },
    {
      "constant": true,
      "inputs": [],
      "name": "getOrderTreeHeight",
      "outputs": [
        {
          "internalType": "uint256",
          "name": "height",
          "type": "uint256"
        }
      ],
      "payable": false,
      "stateMutability": "view",
      "type": "function"
    },
    {
      "constant": true,
      "inputs": [
        {
          "internalType": "uint256",
          "name": "starkKey",
          "type": "uint256"
        },
        {
          "internalType": "uint256",
          "name": "tokenId",
          "type": "uint256"
        },
        {
          "internalType": "uint256",
          "name": "vaultId",
          "type": "uint256"
        }
      ],
      "name": "getQuantizedDepositBalance",
      "outputs": [
        {
          "internalType": "uint256",
          "name": "balance",
          "type": "uint256"
        }
      ],
      "payable": false,
      "stateMutability": "view",
      "type": "function"
    },
    {
      "constant": true,
      "inputs": [
        {
          "internalType": "uint256",
          "name": "tokenId",
          "type": "uint256"
        }
      ],
      "name": "getQuantum",
      "outputs": [
        {
          "internalType": "uint256",
          "name": "quantum",
          "type": "uint256"
        }
      ],
      "payable": false,
      "stateMutability": "view",
      "type": "function"
    },
    {
      "constant": true,
      "inputs": [],
      "name": "getRegisteredAvailabilityVerifiers",
      "outputs": [
        {
          "internalType": "address[]",
          "name": "_verifers",
          "type": "address[]"
        }
      ],
      "payable": false,
      "stateMutability": "view",
      "type": "function"
    },
    {
      "constant": true,
      "inputs": [],
      "name": "getRegisteredVerifiers",
      "outputs": [
        {
          "internalType": "address[]",
          "name": "_verifers",
          "type": "address[]"
        }
      ],
      "payable": false,
      "stateMutability": "view",
      "type": "function"
    },
    {
      "constant": true,
      "inputs": [],
      "name": "getSequenceNumber",
      "outputs": [
        {
          "internalType": "uint256",
          "name": "seq",
          "type": "uint256"
        }
      ],
      "payable": false,
      "stateMutability": "view",
      "type": "function"
    },
    {
      "constant": true,
      "inputs": [
        {
          "internalType": "address",
          "name": "etherKey",
          "type": "address"
        }
      ],
      "name": "getStarkKey",
      "outputs": [
        {
          "internalType": "uint256",
          "name": "starkKey",
          "type": "uint256"
        }
      ],
      "payable": false,
      "stateMutability": "view",
      "type": "function"
    },
    {
      "constant": true,
      "inputs": [],
      "name": "getVaultRoot",
      "outputs": [
        {
          "internalType": "uint256",
          "name": "root",
          "type": "uint256"
        }
      ],
      "payable": false,
      "stateMutability": "view",
      "type": "function"
    },
    {
      "constant": true,
      "inputs": [],
      "name": "getVaultTreeHeight",
      "outputs": [
        {
          "internalType": "uint256",
          "name": "height",
          "type": "uint256"
        }
      ],
      "payable": false,
      "stateMutability": "view",
      "type": "function"
    },
    {
      "constant": true,
      "inputs": [
        {
          "internalType": "uint256",
          "name": "starkKey",
          "type": "uint256"
        },
        {
          "internalType": "uint256",
          "name": "tokenId",
          "type": "uint256"
        }
      ],
      "name": "getWithdrawalBalance",
      "outputs": [
        {
          "internalType": "uint256",
          "name": "balance",
          "type": "uint256"
        }
      ],
      "payable": false,
      "stateMutability": "view",
      "type": "function"
    },
    {
      "constant": true,
      "inputs": [
        {
          "internalType": "address",
          "name": "verifierAddress",
          "type": "address"
        }
      ],
      "name": "isAvailabilityVerifier",
      "outputs": [
        {
          "internalType": "bool",
          "name": "",
          "type": "bool"
        }
      ],
      "payable": false,
      "stateMutability": "view",
      "type": "function"
    },
    {
      "constant": true,
      "inputs": [],
      "name": "isFrozen",
      "outputs": [
        {
          "internalType": "bool",
          "name": "frozen",
          "type": "bool"
        }
      ],
      "payable": false,
      "stateMutability": "view",
      "type": "function"
    },
    {
      "constant": true,
      "inputs": [
        {
          "internalType": "address",
          "name": "testedOperator",
          "type": "address"
        }
      ],
      "name": "isOperator",
      "outputs": [
        {
          "internalType": "bool",
          "name": "",
          "type": "bool"
        }
      ],
      "payable": false,
      "stateMutability": "view",
      "type": "function"
    },
    {
      "constant": true,
      "inputs": [
        {
          "internalType": "address",
          "name": "testedAdmin",
          "type": "address"
        }
      ],
      "name": "isTokenAdmin",
      "outputs": [
        {
          "internalType": "bool",
          "name": "",
          "type": "bool"
        }
      ],
      "payable": false,
      "stateMutability": "view",
      "type": "function"
    },
    {
      "constant": true,
      "inputs": [
        {
          "internalType": "address",
          "name": "testedAdmin",
          "type": "address"
        }
      ],
      "name": "isUserAdmin",
      "outputs": [
        {
          "internalType": "bool",
          "name": "",
          "type": "bool"
        }
      ],
      "payable": false,
      "stateMutability": "view",
      "type": "function"
    },
    {
      "constant": true,
      "inputs": [
        {
          "internalType": "address",
          "name": "verifierAddress",
          "type": "address"
        }
      ],
      "name": "isVerifier",
      "outputs": [
        {
          "internalType": "bool",
          "name": "",
          "type": "bool"
        }
      ],
      "payable": false,
      "stateMutability": "view",
      "type": "function"
    },
    {
      "constant": false,
      "inputs": [],
      "name": "mainAcceptGovernance",
      "outputs": [],
      "payable": false,
      "stateMutability": "nonpayable",
      "type": "function"
    },
    {
      "constant": false,
      "inputs": [],
      "name": "mainCancelNomination",
      "outputs": [],
      "payable": false,
      "stateMutability": "nonpayable",
      "type": "function"
    },
    {
      "constant": true,
      "inputs": [
        {
          "internalType": "address",
          "name": "testGovernor",
          "type": "address"
        }
      ],
      "name": "mainIsGovernor",
      "outputs": [
        {
          "internalType": "bool",
          "name": "",
          "type": "bool"
        }
      ],
      "payable": false,
      "stateMutability": "view",
      "type": "function"
    },
    {
      "constant": false,
      "inputs": [
        {
          "internalType": "address",
          "name": "newGovernor",
          "type": "address"
        }
      ],
      "name": "mainNominateNewGovernor",
      "outputs": [],
      "payable": false,
      "stateMutability": "nonpayable",
      "type": "function"
    },
    {
      "constant": false,
      "inputs": [
        {
          "internalType": "address",
          "name": "governorForRemoval",
          "type": "address"
        }
      ],
      "name": "mainRemoveGovernor",
      "outputs": [],
      "payable": false,
      "stateMutability": "nonpayable",
      "type": "function"
    },
    {
      "constant": false,
      "inputs": [
        {
          "internalType": "uint256",
          "name": "starkKey",
          "type": "uint256"
        },
        {
          "internalType": "bytes",
          "name": "signature",
          "type": "bytes"
        }
      ],
      "name": "register",
      "outputs": [],
      "payable": false,
      "stateMutability": "nonpayable",
      "type": "function"
    },
    {
      "constant": false,
      "inputs": [
        {
          "internalType": "address",
          "name": "verifier",
          "type": "address"
        },
        {
          "internalType": "string",
          "name": "identifier",
          "type": "string"
        }
      ],
      "name": "registerAvailabilityVerifier",
      "outputs": [],
      "payable": false,
      "stateMutability": "nonpayable",
      "type": "function"
    },
    {
      "constant": false,
      "inputs": [
        {
          "internalType": "address",
          "name": "newOperator",
          "type": "address"
        }
      ],
      "name": "registerOperator",
      "outputs": [],
      "payable": false,
      "stateMutability": "nonpayable",
      "type": "function"
    },
    {
      "constant": false,
      "inputs": [
        {
          "internalType": "uint256",
          "name": "tokenId",
          "type": "uint256"
        },
        {
          "internalType": "bytes",
          "name": "assetData",
          "type": "bytes"
        },
        {
          "internalType": "uint256",
          "name": "quantum",
          "type": "uint256"
        }
      ],
      "name": "registerToken",
      "outputs": [],
      "payable": false,
      "stateMutability": "nonpayable",
      "type": "function"
    },
    {
      "constant": false,
      "inputs": [
        {
          "internalType": "address",
          "name": "newAdmin",
          "type": "address"
        }
      ],
      "name": "registerTokenAdmin",
      "outputs": [],
      "payable": false,
      "stateMutability": "nonpayable",
      "type": "function"
    },
    {
      "constant": false,
      "inputs": [
        {
          "internalType": "address",
          "name": "newAdmin",
          "type": "address"
        }
      ],
      "name": "registerUserAdmin",
      "outputs": [],
      "payable": false,
      "stateMutability": "nonpayable",
      "type": "function"
    },
    {
      "constant": false,
      "inputs": [
        {
          "internalType": "address",
          "name": "verifier",
          "type": "address"
        },
        {
          "internalType": "string",
          "name": "identifier",
          "type": "string"
        }
      ],
      "name": "registerVerifier",
      "outputs": [],
      "payable": false,
      "stateMutability": "nonpayable",
      "type": "function"
    },
    {
      "constant": false,
      "inputs": [
        {
          "internalType": "address",
          "name": "verifier",
          "type": "address"
        }
      ],
      "name": "removeAvailabilityVerifier",
      "outputs": [],
      "payable": false,
      "stateMutability": "nonpayable",
      "type": "function"
    },
    {
      "constant": false,
      "inputs": [
        {
          "internalType": "address",
          "name": "verifier",
          "type": "address"
        }
      ],
      "name": "removeVerifier",
      "outputs": [],
      "payable": false,
      "stateMutability": "nonpayable",
      "type": "function"
    },
    {
      "constant": false,
      "inputs": [],
      "name": "unFreeze",
      "outputs": [],
      "payable": false,
      "stateMutability": "nonpayable",
      "type": "function"
    },
    {
      "constant": false,
      "inputs": [
        {
          "internalType": "address",
          "name": "removedOperator",
          "type": "address"
        }
      ],
      "name": "unregisterOperator",
      "outputs": [],
      "payable": false,
      "stateMutability": "nonpayable",
      "type": "function"
    },
    {
      "constant": false,
      "inputs": [
        {
          "internalType": "address",
          "name": "oldAdmin",
          "type": "address"
        }
      ],
      "name": "unregisterTokenAdmin",
      "outputs": [],
      "payable": false,
      "stateMutability": "nonpayable",
      "type": "function"
    },
    {
      "constant": false,
      "inputs": [
        {
          "internalType": "address",
          "name": "oldAdmin",
          "type": "address"
        }
      ],
      "name": "unregisterUserAdmin",
      "outputs": [],
      "payable": false,
      "stateMutability": "nonpayable",
      "type": "function"
    },
    {
      "constant": false,
      "inputs": [
        {
          "internalType": "uint256[]",
          "name": "publicInput",
          "type": "uint256[]"
        },
        {
          "internalType": "uint256[]",
          "name": "applicationData",
          "type": "uint256[]"
        }
      ],
      "name": "updateState",
      "outputs": [],
      "payable": false,
      "stateMutability": "nonpayable",
      "type": "function"
    },
    {
      "constant": false,
      "inputs": [
        {
          "internalType": "uint256",
          "name": "tokenId",
          "type": "uint256"
        }
      ],
      "name": "withdraw",
      "outputs": [],
      "payable": false,
      "stateMutability": "nonpayable",
      "type": "function"
    },
    {
      "constant": false,
      "inputs": [
        {
          "internalType": "bytes",
          "name": "data",
          "type": "bytes"
        }
      ],
      "name": "initialize",
      "outputs": [],
      "payable": false,
      "stateMutability": "nonpayable",
      "type": "function"
    }
  ],
  "bytecode": "0x60806040523480156200001157600080fd5b5060405162008e1f38038062008e1f833981810160405260c08110156200003757600080fd5b81019080805190602001909291908051906020019092919080519060200190929190805190602001909291908051906020019092919080519060200190929190505050620000908686868686866200009c60201b60201c565b50505050505062000606565b620000ac620000f960201b60201c565b620000c16200023960201b620078e31760201c565b620000db8585858585620002f660201b620079a01760201c565b620000f1866200032060201b620079ca1760201c565b505050505050565b60606200010b6200036460201b60201c565b9050600080826040518082805190602001908083835b6020831062000146578051825260208201915060208101905060208303925062000121565b6001836020036101000a03801982511681845116808217855250505050505090500191505090815260200160405180910390209050600015158160010160149054906101000a900460ff1615151462000207576040517f08c379a00000000000000000000000000000000000000000000000000000000081526004018080602001828103825260138152602001807f414c52454144595f494e495449414c495a45440000000000000000000000000081525060200191505060405180910390fd5b60018160010160146101000a81548160ff02191690831515021790555062000235336200038560201b60201c565b5050565b6001601360003373ffffffffffffffffffffffffffffffffffffffff1673ffffffffffffffffffffffffffffffffffffffff16815260200190815260200160002060006101000a81548160ff0219169083151502179055507f50a18c352ee1c02ffe058e15c2eb6e58be387c81e73cc1e17035286e54c19a5733604051808273ffffffffffffffffffffffffffffffffffffffff1673ffffffffffffffffffffffffffffffffffffffff16815260200191505060405180910390a1565b84600c8190555083600d8190555082600f8190555081600e81905550806010819055505050505050565b80600460006101000a81548173ffffffffffffffffffffffffffffffffffffffff021916908373ffffffffffffffffffffffffffffffffffffffff16021790555050565b606060405180606001604052806026815260200162008df960269139905090565b600015156200039a826200048260201b60201c565b15151462000410576040517f08c379a00000000000000000000000000000000000000000000000000000000081526004018080602001828103825260108152602001807f414c52454144595f474f5645524e4f520000000000000000000000000000000081525060200191505060405180910390fd5b600062000422620004ee60201b60201c565b905060018160000160008473ffffffffffffffffffffffffffffffffffffffff1673ffffffffffffffffffffffffffffffffffffffff16815260200190815260200160002060006101000a81548160ff0219169083151502179055505050565b60008062000495620004ee60201b60201c565b90508060000160008473ffffffffffffffffffffffffffffffffffffffff1673ffffffffffffffffffffffffffffffffffffffff16815260200190815260200160002060009054906101000a900460ff16915050919050565b60006060620005026200036460201b60201c565b9050600080826040518082805190602001908083835b602083106200053d578051825260208201915060208101905060208303925062000518565b6001836020036101000a03801982511681845116808217855250505050505090500191505090815260200160405180910390209050600115158160010160149054906101000a900460ff16151514620005fe576040517f08c379a000000000000000000000000000000000000000000000000000000000815260040180806020018281038252600f8152602001807f4e4f545f494e495449414c495a4544000000000000000000000000000000000081525060200191505060405180910390fd5b809250505090565b6187e380620006166000396000f3fe6080604052600436106103955760003560e01c80637cf12b90116101dc578063b910720911610102578063d88d8b38116100a0578063ec3161b01161006f578063ec3161b01461166c578063f288a3ff146116c5578063f3e0c3fb146116f0578063ffa1ad741461174157610395565b8063d88d8b3814611520578063dd7202d8146115ba578063e2bbb15814611609578063e6de62821461164157610395565b8063c1e5976e116100dc578063c1e5976e14611395578063c23b60ef146113fa578063c7fb117c1461148a578063ca2dfd0a146114cf57610395565b8063b91072091461124b578063bd1279ae14611286578063bdb75785146112ef57610395565b8063a1cc921e1161017a578063b04b617911610149578063b04b617914611103578063b1e640bf14611154578063b7663112146111a5578063b7c3236f146111d057610395565b8063a1cc921e14610f95578063a2bdde3d14610fe6578063a6fa6e901461104f578063abf98fe1146110a057610395565b80638c4bce1c116101b65780638c4bce1c14610e6f57806396115bc214610ec0578063993f363914610f115780639e3adac414610f3c57610395565b80637cf12b9014610d795780637d1108f514610d905780637e9da4c514610e4457610395565b8063418573b7116102c1578063515535e81161025f57806372eb36881161022e57806372eb368814610c3e57806374d523a814610c55578063765718d714610cbe57806377e84e0d14610d4e57610395565b8063515535e814610aa4578063538f940614610acf57806364da5dfe14610baa5780636d70f7ae14610bd557610395565b806345f5cd971161029b57806345f5cd97146109275780634e8912da146109905780634eab38f4146109f35780634eab9ed314610a3857610395565b8063418573b71461082557806342af35fd14610876578063439fab91146108a157610395565b806328700a1511610339578063333ac20b11610308578063333ac20b1461069c57806333eeb147146106ff5780633682a4501461072e5780633776fe2a1461077f57610395565b806328700a1514610588578063296e2f371461059f5780632e1a7d4d146105f8578063331052181461063357610395565b80630dded952116103755780630dded952146104655780631ac347f2146104905780631d078bbb146104fc578063276dd1de1461054d57610395565b80627175421461039a578062aeef8a146103c55780630b3a2d2114610414575b600080fd5b3480156103a657600080fd5b506103af6117d1565b6040518082815260200191505060405180910390f35b3480156103d157600080fd5b50610412600480360360608110156103e857600080fd5b810190808035906020019092919080359060200190929190803590602001909291905050506117d8565b005b34801561042057600080fd5b506104636004803603602081101561043757600080fd5b81019080803573ffffffffffffffffffffffffffffffffffffffff169060200190929190505050611a85565b005b34801561047157600080fd5b5061047a611bbe565b6040518082815260200191505060405180910390f35b34801561049c57600080fd5b506104a5611bc8565b6040518080602001828103825283818151815260200191508051906020019060200280838360005b838110156104e85780820151818401526020810190506104cd565b505050509050019250505060405180910390f35b34801561050857600080fd5b5061054b6004803603602081101561051f57600080fd5b81019080803573ffffffffffffffffffffffffffffffffffffffff169060200190929190505050611c59565b005b34801561055957600080fd5b506105866004803603602081101561057057600080fd5b8101908080359060200190929190505050611c70565b005b34801561059457600080fd5b5061059d611e10565b005b3480156105ab57600080fd5b506105e2600480360360408110156105c257600080fd5b810190808035906020019092919080359060200190929190505050611e1a565b6040518082815260200191505060405180910390f35b34801561060457600080fd5b506106316004803603602081101561061b57600080fd5b8101908080359060200190929190505050611e49565b005b34801561063f57600080fd5b506106826004803603602081101561065657600080fd5b81019080803573ffffffffffffffffffffffffffffffffffffffff169060200190929190505050611f16565b604051808215151515815260200191505060405180910390f35b3480156106a857600080fd5b506106e9600480360360608110156106bf57600080fd5b81019080803590602001909291908035906020019092919080359060200190929190505050611f50565b6040518082815260200191505060405180910390f35b34801561070b57600080fd5b50610714611f91565b604051808215151515815260200191505060405180910390f35b34801561073a57600080fd5b5061077d6004803603602081101561075157600080fd5b81019080803573ffffffffffffffffffffffffffffffffffffffff169060200190929190505050611fa8565b005b34801561078b57600080fd5b50610823600480360360408110156107a257600080fd5b81019080803573ffffffffffffffffffffffffffffffffffffffff169060200190929190803590602001906401000000008111156107df57600080fd5b8201836020820111156107f157600080fd5b8035906020019184600183028401116401000000008311171561081357600080fd5b90919293919293905050506120e1565b005b34801561083157600080fd5b506108746004803603602081101561084857600080fd5b81019080803573ffffffffffffffffffffffffffffffffffffffff169060200190929190505050612138565b005b34801561088257600080fd5b5061088b61214f565b6040518082815260200191505060405180910390f35b3480156108ad57600080fd5b50610925600480360360208110156108c457600080fd5b81019080803590602001906401000000008111156108e157600080fd5b8201836020820111156108f357600080fd5b8035906020019184600183028401116401000000008311171561091557600080fd5b9091929391929390505050612159565b005b34801561093357600080fd5b506109766004803603602081101561094a57600080fd5b81019080803573ffffffffffffffffffffffffffffffffffffffff1690602001909291905050506122e8565b604051808215151515815260200191505060405180910390f35b34801561099c57600080fd5b506109dd600480360360608110156109b357600080fd5b810190808035906020019092919080359060200190929190803590602001909291905050506122fa565b6040518082815260200191505060405180910390f35b3480156109ff57600080fd5b50610a3660048036036040811015610a1657600080fd5b81019080803590602001909291908035906020019092919050505061233b565b005b348015610a4457600080fd5b50610a4d612624565b6040518080602001828103825283818151815260200191508051906020019060200280838360005b83811015610a90578082015181840152602081019050610a75565b505050509050019250505060405180910390f35b348015610ab057600080fd5b50610ab96126b5565b6040518082815260200191505060405180910390f35b348015610adb57600080fd5b50610ba860048036036040811015610af257600080fd5b8101908080359060200190640100000000811115610b0f57600080fd5b820183602082011115610b2157600080fd5b80359060200191846020830284011164010000000083111715610b4357600080fd5b909192939192939080359060200190640100000000811115610b6457600080fd5b820183602082011115610b7657600080fd5b80359060200191846020830284011164010000000083111715610b9857600080fd5b90919293919293905050506126bf565b005b348015610bb657600080fd5b50610bbf612ca0565b6040518082815260200191505060405180910390f35b348015610be157600080fd5b50610c2460048036036020811015610bf857600080fd5b81019080803573ffffffffffffffffffffffffffffffffffffffff169060200190929190505050612caa565b604051808215151515815260200191505060405180910390f35b348015610c4a57600080fd5b50610c53612d00565b005b348015610c6157600080fd5b50610ca460048036036020811015610c7857600080fd5b81019080803573ffffffffffffffffffffffffffffffffffffffff169060200190929190505050612d0a565b604051808215151515815260200191505060405180910390f35b348015610cca57600080fd5b50610d4c60048036036040811015610ce157600080fd5b810190808035906020019092919080359060200190640100000000811115610d0857600080fd5b820183602082011115610d1a57600080fd5b80359060200191846001830284011164010000000083111715610d3c57600080fd5b9091929391929390505050612d60565b005b348015610d5a57600080fd5b50610d636133bd565b6040518082815260200191505060405180910390f35b348015610d8557600080fd5b50610d8e6133c4565b005b348015610d9c57600080fd5b50610dc960048036036020811015610db357600080fd5b81019080803590602001909291905050506135ab565b6040518080602001828103825283818151815260200191508051906020019080838360005b83811015610e09578082015181840152602081019050610dee565b50505050905090810190601f168015610e365780820380516001836020036101000a031916815260200191505b509250505060405180910390f35b348015610e5057600080fd5b50610e596136f3565b6040518082815260200191505060405180910390f35b348015610e7b57600080fd5b50610ebe60048036036020811015610e9257600080fd5b81019080803573ffffffffffffffffffffffffffffffffffffffff1690602001909291905050506136fd565b005b348015610ecc57600080fd5b50610f0f60048036036020811015610ee357600080fd5b81019080803573ffffffffffffffffffffffffffffffffffffffff169060200190929190505050613709565b005b348015610f1d57600080fd5b50610f26613842565b6040518082815260200191505060405180910390f35b348015610f4857600080fd5b50610f9360048036036080811015610f5f57600080fd5b810190808035906020019092919080359060200190929190803590602001909291908035906020019092919050505061384a565b005b348015610fa157600080fd5b50610fe460048036036020811015610fb857600080fd5b81019080803573ffffffffffffffffffffffffffffffffffffffff169060200190929190505050613b44565b005b348015610ff257600080fd5b506110356004803603602081101561100957600080fd5b81019080803573ffffffffffffffffffffffffffffffffffffffff169060200190929190505050613b50565b604051808215151515815260200191505060405180910390f35b34801561105b57600080fd5b5061109e6004803603602081101561107257600080fd5b81019080803573ffffffffffffffffffffffffffffffffffffffff169060200190929190505050613ba6565b005b3480156110ac57600080fd5b506110ed600480360360608110156110c357600080fd5b81019080803590602001909291908035906020019092919080359060200190929190505050613cdf565b6040518082815260200191505060405180910390f35b34801561110f57600080fd5b506111526004803603602081101561112657600080fd5b81019080803573ffffffffffffffffffffffffffffffffffffffff169060200190929190505050613d29565b005b34801561116057600080fd5b506111a36004803603602081101561117757600080fd5b81019080803573ffffffffffffffffffffffffffffffffffffffff169060200190929190505050613e62565b005b3480156111b157600080fd5b506111ba613e70565b6040518082815260200191505060405180910390f35b3480156111dc57600080fd5b50611209600480360360208110156111f357600080fd5b8101908080359060200190929190505050613e7c565b604051808273ffffffffffffffffffffffffffffffffffffffff1673ffffffffffffffffffffffffffffffffffffffff16815260200191505060405180910390f35b34801561125757600080fd5b506112846004803603602081101561126e57600080fd5b8101908080359060200190929190505050613f5c565b005b34801561129257600080fd5b506112d5600480360360208110156112a957600080fd5b81019080803573ffffffffffffffffffffffffffffffffffffffff1690602001909291905050506141ad565b604051808215151515815260200191505060405180910390f35b3480156112fb57600080fd5b506113936004803603604081101561131257600080fd5b81019080803573ffffffffffffffffffffffffffffffffffffffff1690602001909291908035906020019064010000000081111561134f57600080fd5b82018360208201111561136157600080fd5b8035906020019184600183028401116401000000008311171561138357600080fd5b90919293919293905050506141e7565b005b3480156113a157600080fd5b506113e4600480360360208110156113b857600080fd5b81019080803573ffffffffffffffffffffffffffffffffffffffff16906020019092919050505061423e565b6040518082815260200191505060405180910390f35b34801561140657600080fd5b5061140f6142fe565b6040518080602001828103825283818151815260200191508051906020019080838360005b8381101561144f578082015181840152602081019050611434565b50505050905090810190601f16801561147c5780820380516001836020036101000a031916815260200191505b509250505060405180910390f35b34801561149657600080fd5b506114cd600480360360408110156114ad57600080fd5b81019080803590602001909291908035906020019092919050505061431a565b005b3480156114db57600080fd5b5061151e600480360360208110156114f257600080fd5b81019080803573ffffffffffffffffffffffffffffffffffffffff16906020019092919050505061442d565b005b34801561152c57600080fd5b506115b86004803603606081101561154357600080fd5b81019080803590602001909291908035906020019064010000000081111561156a57600080fd5b82018360208201111561157c57600080fd5b8035906020019184600183028401116401000000008311171561159e57600080fd5b90919293919293908035906020019092919050505061443b565b005b3480156115c657600080fd5b506115f3600480360360208110156115dd57600080fd5b8101908080359060200190929190505050614cd5565b6040518082815260200191505060405180910390f35b61163f6004803603604081101561161f57600080fd5b810190808035906020019092919080359060200190929190505050614d85565b005b34801561164d57600080fd5b50611656614e18565b6040518082815260200191505060405180910390f35b34801561167857600080fd5b506116af6004803603604081101561168f57600080fd5b810190808035906020019092919080359060200190929190505050614e1d565b6040518082815260200191505060405180910390f35b3480156116d157600080fd5b506116da614e55565b6040518082815260200191505060405180910390f35b3480156116fc57600080fd5b5061173f6004803603602081101561171357600080fd5b81019080803573ffffffffffffffffffffffffffffffffffffffff169060200190929190505050614e5f565b005b34801561174d57600080fd5b50611756614f98565b6040518080602001828103825283818151815260200191508051906020019080838360005b8381101561179657808201518184015260208101905061177b565b50505050905090810190601f1680156117c35780820380516001836020036101000a031916815260200191505b509250505060405180910390f35b62093a8081565b60001515600460149054906101000a900460ff16151514611861576040517f08c379a000000000000000000000000000000000000000000000000000000000815260040180806020018281038252600f8152602001807f53544154455f49535f46524f5a454e000000000000000000000000000000000081525060200191505060405180910390fd5b637fffffff8211156118db576040517f08c379a00000000000000000000000000000000000000000000000000000000081526004018080602001828103825260158152602001807f4f55545f4f465f52414e47455f5641554c545f4944000000000000000000000081525060200191505060405180910390fd5b600033905060006118eb8261423e565b9050826006600083815260200190815260200160002060008781526020019081526020016000206000868152602001908152602001600020600082825401925050819055508260066000838152602001908152602001600020600087815260200190815260200160002060008681526020019081526020016000205410156119db576040517f08c379a00000000000000000000000000000000000000000000000000000000081526004018080602001828103825260108152602001807f4445504f5349545f4f564552464c4f570000000000000000000000000000000081525060200191505060405180910390fd5b600760008281526020019081526020016000206000868152602001908152602001600020600085815260200190815260200160002060009055611a1e8584614fd1565b7fd007b2ef4ace068e55b4dc822e921371b8d16cb1afb603e805e4a2330c25f111818587611a4c89886152f8565b87604051808681526020018581526020018481526020018381526020018281526020019550505050505060405180910390a15050505050565b611a8e33615390565b611b00576040517f08c379a000000000000000000000000000000000000000000000000000000000815260040180806020018281038252600f8152602001807f4f4e4c595f474f5645524e414e4345000000000000000000000000000000000081525060200191505060405180910390fd5b6001601160008373ffffffffffffffffffffffffffffffffffffffff1673ffffffffffffffffffffffffffffffffffffffff16815260200190815260200160002060006101000a81548160ff0219169083151502179055507f9085a9044aeb6daeeb5b4bf84af42b1a1613d4056f503c4e992b6396c16bd52f81604051808273ffffffffffffffffffffffffffffffffffffffff1673ffffffffffffffffffffffffffffffffffffffff16815260200191505060405180910390a150565b6000600f54905090565b6060601b600001805480602002602001604051908101604052809291908181526020018280548015611c4f57602002820191906000526020600020905b8160009054906101000a900473ffffffffffffffffffffffffffffffffffffffff1673ffffffffffffffffffffffffffffffffffffffff1681526020019060010190808311611c05575b5050505050905090565b611c6d601b82621baf8062093a80016153f4565b50565b60001515600460149054906101000a900460ff16151514611cf9576040517f08c379a000000000000000000000000000000000000000000000000000000000815260040180806020018281038252600f8152602001807f53544154455f49535f46524f5a454e000000000000000000000000000000000081525060200191505060405180910390fd5b60003390506000611d098261423e565b9050637fffffff831115611d85576040517f08c379a00000000000000000000000000000000000000000000000000000000081526004018080602001828103825260158152602001807f4f55545f4f465f52414e47455f5641554c545f4944000000000000000000000081525060200191505060405180910390fd5b42600b60008381526020019081526020016000206000858152602001908152602001600020819055507f08eb46dbb87dcfe92d4846e5766802051525fba08a9b48318f5e0fe41186d2988184604051808381526020018281526020019250505060405180910390a160008090505b6156d7811015611e0a578080600101915050611df3565b50505050565b611e186155ca565b565b6000600b6000848152602001908152602001600020600083815260200190815260200160002054905092915050565b60003390506000611e598261423e565b90506000600860008381526020019081526020016000206000858152602001908152602001600020549050600060086000848152602001908152602001600020600086815260200190815260200160002081905550611eb88482615772565b7fd37d19ca93397d57731ceadc5ffe1a8dcba7feaa77b6246817b980f2494a03b78285611ee587856152f8565b846040518085815260200184815260200183815260200182815260200194505050505060405180910390a150505050565b60007fffffffffffffffffffffffffffffffffffffffffffffffffffffffffffffffff611f47601960000184615a37565b14159050919050565b600060076000858152602001908152602001600020600084815260200190815260200160002060008381526020019081526020016000205490509392505050565b6000600460149054906101000a900460ff16905090565b611fb133615390565b612023576040517f08c379a000000000000000000000000000000000000000000000000000000000815260040180806020018281038252600f8152602001807f4f4e4c595f474f5645524e414e4345000000000000000000000000000000000081525060200191505060405180910390fd5b6001601360008373ffffffffffffffffffffffffffffffffffffffff1673ffffffffffffffffffffffffffffffffffffffff16815260200190815260200160002060006101000a81548160ff0219169083151502179055507f50a18c352ee1c02ffe058e15c2eb6e58be387c81e73cc1e17035286e54c19a5781604051808273ffffffffffffffffffffffffffffffffffffffff1673ffffffffffffffffffffffffffffffffffffffff16815260200191505060405180910390a150565b612133601984604085858080601f016020809104026020016040519081016040528093929190818152602001838380828437600081840152601f19601f82011690508083019250505050505050615afc565b505050565b61214c601982621baf8062093a80016153f4565b50565b6000600c54905090565b6000612163616178565b9050600015156003600083815260200190815260200160002060009054906101000a900460ff16151514156122e35760008383905011156122b65760c08383905014612217576040517f08c379a00000000000000000000000000000000000000000000000000000000081526004018080602001828103825260188152602001807f494e434f52524543545f494e49545f444154415f53495a45000000000000000081525060200191505060405180910390fd5b600080600080600080888860c081101561223057600080fd5b81019080803573ffffffffffffffffffffffffffffffffffffffff1690602001909291908035906020019092919080359060200190929190803590602001909291908035906020019092919080359060200190929190505050809650819750829850839950849a50859b505050505050506122af8686868686866162c5565b5050505050505b60016003600083815260200190815260200160002060006101000a81548160ff0219169083151502179055505b505050565b60006122f382615390565b9050919050565b600060066000858152602001908152602001600020600084815260200190815260200160002060008381526020019081526020016000205490509392505050565b637fffffff8111156123b5576040517f08c379a00000000000000000000000000000000000000000000000000000000081526004018080602001828103825260158152602001807f4f55545f4f465f52414e47455f5641554c545f4944000000000000000000000081525060200191505060405180910390fd5b600033905060006123c58261423e565b9050600060076000838152602001908152602001600020600086815260200190815260200160002060008581526020019081526020016000205490506000811415612478576040517f08c379a00000000000000000000000000000000000000000000000000000000081526004018080602001828103825260148152602001807f4445504f5349545f4e4f545f43414e43454c454400000000000000000000000081525060200191505060405180910390fd5b600062015180820190506201518081101561248f57fe5b80421015612505576040517f08c379a000000000000000000000000000000000000000000000000000000000815260040180806020018281038252600e8152602001807f4445504f5349545f4c4f434b454400000000000000000000000000000000000081525060200191505060405180910390fd5b600060066000858152602001908152602001600020600088815260200190815260200160002060008781526020019081526020016000205490506006600085815260200190815260200160002060008881526020019081526020016000206000878152602001908152602001600020600090556007600085815260200190815260200160002060008881526020019081526020016000206000878152602001908152602001600020600090556125bb8782615772565b7fe3e46ecf1138180bf93cba62a0b7e661d976a8ab3d40243f7b082667d8f500af8487896125e98b866152f8565b85604051808681526020018581526020018481526020018381526020018281526020019550505050505060405180910390a150505050505050565b606060196000018054806020026020016040519081016040528092919081815260200182805480156126ab57602002820191906000526020600020905b8160009054906101000a900473ffffffffffffffffffffffffffffffffffffffff1673ffffffffffffffffffffffffffffffffffffffff1681526020019060010190808311612661575b5050505050905090565b6000601d54905090565b60001515600460149054906101000a900460ff16151514612748576040517f08c379a000000000000000000000000000000000000000000000000000000000815260040180806020018281038252600f8152602001807f53544154455f49535f46524f5a454e000000000000000000000000000000000081525060200191505060405180910390fd5b601360003373ffffffffffffffffffffffffffffffffffffffff1673ffffffffffffffffffffffffffffffffffffffff16815260200190815260200160002060009054906101000a900460ff16612807576040517f08c379a000000000000000000000000000000000000000000000000000000000815260040180806020018281038252600d8152602001807f4f4e4c595f4f50455241544f520000000000000000000000000000000000000081525060200191505060405180910390fd5b6009848490501015612864576040517f08c379a000000000000000000000000000000000000000000000000000000000815260040180806020018281038252603181526020018061866a6031913960400191505060405180910390fd5b7f08000000000000110000000000000000000000000000000000000000000000018484600481811061289257fe5b905060200201351061290c576040517f08c379a00000000000000000000000000000000000000000000000000000000081526004018080602001828103825260188152602001807f4e6577207661756c7420726f6f74203e3d205052494d452e000000000000000081525060200191505060405180910390fd5b7f08000000000000110000000000000000000000000000000000000000000000018484600681811061293a57fe5b90506020020135106129b4576040517f08c379a00000000000000000000000000000000000000000000000000000000081526004018080602001828103825260188152602001807f4e6577206f7264657220726f6f74203e3d205052494d452e000000000000000081525060200191505060405180910390fd5b6000601d5414806129d95750601d54828260018181106129d057fe5b90506020020135145b612a4b576040517f08c379a00000000000000000000000000000000000000000000000000000000081526004018080602001828103825260178152602001807f57524f4e475f50524556494f55535f42415443485f494400000000000000000081525060200191505060405180910390fd5b60008484604051602001808383602002808284378083019250505092505050604051602081830303815290604052805190602001209050612af96019826040518060400160405280601d81526020017f4e4f5f53544154455f5452414e534954494f4e5f5645524946494552530000008152506040518060400160405280601981526020017f4e4f5f53544154455f5452414e534954494f4e5f50524f4f46000000000000008152506162f3565b600085856004818110612b0857fe5b9050602002013586866007818110612b1c57fe5b9050602002013587876006818110612b3057fe5b9050602002013588886008818110612b4457fe5b905060200201356001600c54016040516020018086815260200185815260200184815260200183815260200182815260200195505050505050604051602081830303815290604052805190602001209050612c0c601b826040518060400160405280601981526020017f4e4f5f415641494c4142494c4954595f564552494649455253000000000000008152506040518060400160405280601581526020017f4e4f5f415641494c4142494c4954595f50524f4f4600000000000000000000008152506162f3565b612c98868680806020026020016040519081016040528093929190818152602001838360200280828437600081840152601f19601f82011690508083019250505050505050858580806020026020016040519081016040528093929190818152602001838360200280828437600081840152601f19601f8201169050808301925050505050505061653e565b505050505050565b6000600d54905090565b6000601360008373ffffffffffffffffffffffffffffffffffffffff1673ffffffffffffffffffffffffffffffffffffffff16815260200190815260200160002060009054906101000a900460ff169050919050565b612d086165e7565b565b6000601260008373ffffffffffffffffffffffffffffffffffffffff1673ffffffffffffffffffffffffffffffffffffffff16815260200190815260200160002060009054906101000a900460ff169050919050565b60003390506000841415612ddc576040517f08c379a00000000000000000000000000000000000000000000000000000000081526004018080602001828103825260118152602001807f494e56414c49445f535441524b5f4b455900000000000000000000000000000081525060200191505060405180910390fd5b6000601760008373ffffffffffffffffffffffffffffffffffffffff1673ffffffffffffffffffffffffffffffffffffffff1681526020019081526020016000205414612e91576040517f08c379a00000000000000000000000000000000000000000000000000000000081526004018080602001828103825260158152602001807f45544845525f4b45595f554e415641494c41424c45000000000000000000000081525060200191505060405180910390fd5b600073ffffffffffffffffffffffffffffffffffffffff166018600086815260200190815260200160002060009054906101000a900473ffffffffffffffffffffffffffffffffffffffff1673ffffffffffffffffffffffffffffffffffffffff1614612f66576040517f08c379a00000000000000000000000000000000000000000000000000000000081526004018080602001828103825260158152602001807f535441524b5f4b45595f554e415641494c41424c45000000000000000000000081525060200191505060405180910390fd5b7f08000000000000110000000000000000000000000000000000000000000000018410612ffb576040517f08c379a00000000000000000000000000000000000000000000000000000000081526004018080602001828103825260118152602001807f494e56414c49445f535441524b5f4b455900000000000000000000000000000081525060200191505060405180910390fd5b613004846166e1565b613076576040517f08c379a00000000000000000000000000000000000000000000000000000000081526004018080602001828103825260118152602001807f494e56414c49445f535441524b5f4b455900000000000000000000000000000081525060200191505060405180910390fd5b604183839050146130ef576040517f08c379a00000000000000000000000000000000000000000000000000000000081526004018080602001828103825260118152602001807f494e56414c49445f5349474e415455524500000000000000000000000000000081525060200191505060405180910390fd5b60008185604051602001808373ffffffffffffffffffffffffffffffffffffffff1673ffffffffffffffffffffffffffffffffffffffff1660601b815260140182815260200192505050604051602081830303815290604052805190602001209050606084848080601f016020809104026020016040519081016040528093929190818152602001838380828437600081840152601f19601f8201169050808301925050505050505090506000816040815181106131a957fe5b602001015160f81c60f81b60f81c90506000806020840151915060408401519050600060018685858560405160008152602001604052604051808581526020018460ff1660ff1681526020018381526020018281526020019450505050506020604051602081039080840390855afa158015613229573d6000803e3d6000fd5b50505060206040510351905061323e81612d0a565b6132b0576040517f08c379a00000000000000000000000000000000000000000000000000000000081526004018080602001828103825260118152602001807f494e56414c49445f5349474e415455524500000000000000000000000000000081525060200191505060405180910390fd5b89601760008973ffffffffffffffffffffffffffffffffffffffff1673ffffffffffffffffffffffffffffffffffffffff1681526020019081526020016000208190555086601860008c815260200190815260200160002060006101000a81548173ffffffffffffffffffffffffffffffffffffffff021916908373ffffffffffffffffffffffffffffffffffffffff1602179055507f81e13c0bae932893ce70e84b95cdb60c8f083c903ae3516134f80f247cfe3bfc878b604051808373ffffffffffffffffffffffffffffffffffffffff1673ffffffffffffffffffffffffffffffffffffffff1681526020018281526020019250505060405180910390a150505050505050505050565b6201518081565b60011515600460149054906101000a900460ff1615151461344d576040517f08c379a00000000000000000000000000000000000000000000000000000000081526004018080602001828103825260108152602001807f53544154455f4e4f545f46524f5a454e0000000000000000000000000000000081525060200191505060405180910390fd5b61345633615390565b6134c8576040517f08c379a000000000000000000000000000000000000000000000000000000000815260040180806020018281038252600f8152602001807f4f4e4c595f474f5645524e414e4345000000000000000000000000000000000081525060200191505060405180910390fd5b600554421015613540576040517f08c379a00000000000000000000000000000000000000000000000000000000081526004018080602001828103825260188152602001807f554e465245455a455f4e4f545f414c4c4f5745445f594554000000000000000081525060200191505060405180910390fd5b6000600460146101000a81548160ff0219169083151502179055506001600d600082825401925050819055506001600f600082825401925050819055507f07017fe9180629cfffba412f65a9affcf9a121de02294179f5c058f881dcc9f860405160405180910390a1565b60606015600083815260200190815260200160002060009054906101000a900460ff16613640576040517f08c379a00000000000000000000000000000000000000000000000000000000081526004018080602001828103825260128152602001807f544f4b454e5f554e52454749535445524544000000000000000000000000000081525060200191505060405180910390fd5b601460008381526020019081526020016000208054600181600116156101000203166002900480601f0160208091040260200160405190810160405280929190818152602001828054600181600116156101000203166002900480156136e75780601f106136bc576101008083540402835291602001916136e7565b820191906000526020600020905b8154815290600101906020018083116136ca57829003601f168201915b50505050509050919050565b6000601054905090565b613706816167c0565b50565b61371233615390565b613784576040517f08c379a000000000000000000000000000000000000000000000000000000000815260040180806020018281038252600f8152602001807f4f4e4c595f474f5645524e414e4345000000000000000000000000000000000081525060200191505060405180910390fd5b6000601360008373ffffffffffffffffffffffffffffffffffffffff1673ffffffffffffffffffffffffffffffffffffffff16815260200190815260200160002060006101000a81548160ff0219169083151502179055507fec5f6c3a91a1efb1f9a308bb33c6e9e66bf9090fad0732f127dfdbf516d0625d81604051808273ffffffffffffffffffffffffffffffffffffffff1673ffffffffffffffffffffffffffffffffffffffff16815260200191505060405180910390a150565b6301e1338081565b60011515600460149054906101000a900460ff161515146138d3576040517f08c379a00000000000000000000000000000000000000000000000000000000081526004018080602001828103825260108152602001807f53544154455f4e4f545f46524f5a454e0000000000000000000000000000000081525060200191505060405180910390fd5b600015156009600085815260200190815260200160002060009054906101000a900460ff1615151461396d576040517f08c379a00000000000000000000000000000000000000000000000000000000081526004018080602001828103825260138152602001807f4553434150455f414c52454144595f555345440000000000000000000000000081525060200191505060405180910390fd5b60016009600085815260200190815260200160002060006101000a81548160ff0219169083151502179055506001600a6000828254019250508190555060008483836139b7612ca0565b6139bf614e55565b8860405160200180878152602001868152602001858152602001848152602001838152602001828152602001965050505050505060405160208183030381529060405280519060200120905060011515600460009054906101000a900473ffffffffffffffffffffffffffffffffffffffff1673ffffffffffffffffffffffffffffffffffffffff16636a938567836040518263ffffffff1660e01b81526004018082815260200191505060206040518083038186803b158015613a8257600080fd5b505afa158015613a96573d6000803e3d6000fd5b505050506040513d6020811015613aac57600080fd5b8101908080519060200190929190505050151514613b32576040517f08c379a00000000000000000000000000000000000000000000000000000000081526004018080602001828103825260128152602001807f4553434150455f4c41434b535f50524f4f46000000000000000000000000000081525060200191505060405180910390fd5b613b3d858484616973565b5050505050565b613b4d81616a9e565b50565b6000601160008373ffffffffffffffffffffffffffffffffffffffff1673ffffffffffffffffffffffffffffffffffffffff16815260200190815260200160002060009054906101000a900460ff169050919050565b613baf33615390565b613c21576040517f08c379a000000000000000000000000000000000000000000000000000000000815260040180806020018281038252600f8152602001807f4f4e4c595f474f5645524e414e4345000000000000000000000000000000000081525060200191505060405180910390fd5b6000601160008373ffffffffffffffffffffffffffffffffffffffff1673ffffffffffffffffffffffffffffffffffffffff16815260200190815260200160002060006101000a81548160ff0219169083151502179055507ffa49aecb996ea8d99950bb051552dfcc0b5460a0bb209867a1ed8067c32c217781604051808273ffffffffffffffffffffffffffffffffffffffff1673ffffffffffffffffffffffffffffffffffffffff16815260200191505060405180910390a150565b6000613d20836006600087815260200190815260200160002060008681526020019081526020016000206000858152602001908152602001600020546152f8565b90509392505050565b613d3233615390565b613da4576040517f08c379a000000000000000000000000000000000000000000000000000000000815260040180806020018281038252600f8152602001807f4f4e4c595f474f5645524e414e4345000000000000000000000000000000000081525060200191505060405180910390fd5b6000601260008373ffffffffffffffffffffffffffffffffffffffff1673ffffffffffffffffffffffffffffffffffffffff16815260200190815260200160002060006101000a81548160ff0219169083151502179055507fb32f8aed6bedf93605e95bc99e0e229b8bbfcd0fe2e76a6748450d3e9522db4681604051808273ffffffffffffffffffffffffffffffffffffffff1673ffffffffffffffffffffffffffffffffffffffff16815260200191505060405180910390a150565b613e6d601b82616d03565b50565b621baf8062093a800181565b60006018600083815260200190815260200160002060009054906101000a900473ffffffffffffffffffffffffffffffffffffffff169050600073ffffffffffffffffffffffffffffffffffffffff168173ffffffffffffffffffffffffffffffffffffffff161415613f57576040517f08c379a00000000000000000000000000000000000000000000000000000000081526004018080602001828103825260118152602001807f555345525f554e5245474953544552454400000000000000000000000000000081525060200191505060405180910390fd5b919050565b60001515600460149054906101000a900460ff16151514613fe5576040517f08c379a000000000000000000000000000000000000000000000000000000000815260040180806020018281038252600f8152602001807f53544154455f49535f46524f5a454e000000000000000000000000000000000081525060200191505060405180910390fd5b60003390506000613ff58261423e565b9050637fffffff831115614071576040517f08c379a00000000000000000000000000000000000000000000000000000000081526004018080602001828103825260158152602001807f4f55545f4f465f52414e47455f5641554c545f4944000000000000000000000081525060200191505060405180910390fd5b6000600b600083815260200190815260200160002060008581526020019081526020016000205490506000811415614111576040517f08c379a000000000000000000000000000000000000000000000000000000000815260040180806020018281038252601b8152602001807f46554c4c5f5749544844524157414c5f554e524551554553544544000000000081525060200191505060405180910390fd5b600062093a808201905062093a8081101561412857fe5b8042101561419e576040517f08c379a00000000000000000000000000000000000000000000000000000000081526004018080602001828103825260178152602001807f46554c4c5f5749544844524157414c5f50454e44494e4700000000000000000081525060200191505060405180910390fd5b6141a66170ae565b5050505050565b60007fffffffffffffffffffffffffffffffffffffffffffffffffffffffffffffffff6141de601b60000184615a37565b14159050919050565b614239601b84604085858080601f016020809104026020016040519081016040528093929190818152602001838380828437600081840152601f19601f82011690508083019250505050505050615afc565b505050565b6000601760008373ffffffffffffffffffffffffffffffffffffffff1673ffffffffffffffffffffffffffffffffffffffff16815260200190815260200160002054905060008114156142f9576040517f08c379a00000000000000000000000000000000000000000000000000000000081526004018080602001828103825260118152602001807f555345525f554e5245474953544552454400000000000000000000000000000081525060200191505060405180910390fd5b919050565b6040518060600160405280602681526020016186f56026913981565b637fffffff811115614394576040517f08c379a00000000000000000000000000000000000000000000000000000000081526004018080602001828103825260158152602001807f4f55545f4f465f52414e47455f5641554c545f4944000000000000000000000081525060200191505060405180910390fd5b600033905060006143a48261423e565b9050426007600083815260200190815260200160002060008681526020019081526020016000206000858152602001908152602001600020819055507f0bc1df35228095c37da66a6ffcc755ea79dfc437345685f618e05fafad6b445e81848660405180848152602001838152602001828152602001935050505060405180910390a150505050565b614438601982616d03565b50565b601160003373ffffffffffffffffffffffffffffffffffffffff1673ffffffffffffffffffffffffffffffffffffffff16815260200190815260200160002060009054906101000a900460ff166144fa576040517f08c379a00000000000000000000000000000000000000000000000000000000081526004018080602001828103825260118152602001807f4f4e4c595f544f4b454e535f41444d494e00000000000000000000000000000081525060200191505060405180910390fd5b600015156015600086815260200190815260200160002060009054906101000a900460ff16151514614594576040517f08c379a00000000000000000000000000000000000000000000000000000000081526004018080602001828103825260108152602001807f544f4b454e5f524547495354455245440000000000000000000000000000000081525060200191505060405180910390fd5b7f08000000000000110000000000000000000000000000000000000000000000018410614629576040517f08c379a00000000000000000000000000000000000000000000000000000000081526004018080602001828103825260108152602001807f494e56414c49445f544f4b454e5f49440000000000000000000000000000000081525060200191505060405180910390fd5b6000811161469f576040517f08c379a000000000000000000000000000000000000000000000000000000000815260040180806020018281038252600f8152602001807f494e56414c49445f5155414e54554d000000000000000000000000000000000081525060200191505060405180910390fd5b6fffffffffffffffffffffffffffffffff811115614725576040517f08c379a000000000000000000000000000000000000000000000000000000000815260040180806020018281038252600f8152602001807f494e56414c49445f5155414e54554d000000000000000000000000000000000081525060200191505060405180910390fd5b600483839050101561479f576040517f08c379a00000000000000000000000000000000000000000000000000000000081526004018080602001828103825260148152602001807f494e56414c49445f41535345545f535452494e4700000000000000000000000081525060200191505060405180910390fd5b60007f03ffffffffffffffffffffffffffffffffffffffffffffffffffffffffffffff848484604051602001808484808284378083019250505082815260200193505050506040516020818303038152906040528051906020012060001c169050808514614875576040517f08c379a00000000000000000000000000000000000000000000000000000000081526004018080602001828103825260108152602001807f494e56414c49445f544f4b454e5f49440000000000000000000000000000000081525060200191505060405180910390fd5b60016015600087815260200190815260200160002060006101000a81548160ff02191690831515021790555083836014600088815260200190815260200160002091906148c3929190618577565b50816016600087815260200190815260200160002081905550600061492b85858080601f016020809104026020016040519081016040528093929190818152602001838380828437600081840152601f19601f8201169050808301925050505050505061718d565b905060405180807f4552433230546f6b656e28616464726573732900000000000000000000000000815250601301905060405180910390207bffffffffffffffffffffffffffffffffffffffffffffffffffffffff1916817bffffffffffffffffffffffffffffffffffffffffffffffffffffffff19161415614afa5760248585905014614a21576040517f08c379a00000000000000000000000000000000000000000000000000000000081526004018080602001828103825260148152602001807f494e56414c49445f41535345545f535452494e4700000000000000000000000081525060200191505060405180910390fd5b6000614a7586868080601f016020809104026020016040519081016040528093929190818152602001838380828437600081840152601f19601f8201169050808301925050505050505060046020016171bd565b90506000813b905060008111614af3576040517f08c379a00000000000000000000000000000000000000000000000000000000081526004018080602001828103825260118152602001807f4241445f45524332305f4144445245535300000000000000000000000000000081525060200191505060405180910390fd5b5050614c62565b60405180807f4554482829000000000000000000000000000000000000000000000000000000815250600501905060405180910390207bffffffffffffffffffffffffffffffffffffffffffffffffffffffff1916817bffffffffffffffffffffffffffffffffffffffffffffffffffffffff19161415614bf35760048585905014614bee576040517f08c379a00000000000000000000000000000000000000000000000000000000081526004018080602001828103825260148152602001807f494e56414c49445f41535345545f535452494e4700000000000000000000000081525060200191505060405180910390fd5b614c61565b6040517f08c379a00000000000000000000000000000000000000000000000000000000081526004018080602001828103825260168152602001807f554e535550504f525445445f544f4b454e5f545950450000000000000000000081525060200191505060405180910390fd5b5b7f4d2c7bfd8df1ba4f331f1abd2562bf3088e8b378c7dd1308113a82c64e518dbf86868660405180848152602001806020018281038252848482818152602001925080828437600081840152601f19601f82011690508083019250505094505050505060405180910390a1505050505050565b60006015600083815260200190815260200160002060009054906101000a900460ff16614d6a576040517f08c379a00000000000000000000000000000000000000000000000000000000081526004018080602001828103825260128152602001807f544f4b454e5f554e52454749535445524544000000000000000000000000000081525060200191505060405180910390fd5b60166000838152602001908152602001600020549050919050565b614d8e826171cb565b614e00576040517f08c379a00000000000000000000000000000000000000000000000000000000081526004018080602001828103825260108152602001807f494e56414c49445f544f4b454e5f49440000000000000000000000000000000081525060200191505060405180910390fd5b614e148282614e0f8534617266565b6117d8565b5050565b604081565b6000614e4d82600860008681526020019081526020016000206000858152602001908152602001600020546152f8565b905092915050565b6000600e54905090565b614e6833615390565b614eda576040517f08c379a000000000000000000000000000000000000000000000000000000000815260040180806020018281038252600f8152602001807f4f4e4c595f474f5645524e414e4345000000000000000000000000000000000081525060200191505060405180910390fd5b6001601260008373ffffffffffffffffffffffffffffffffffffffff1673ffffffffffffffffffffffffffffffffffffffff16815260200190815260200160002060006101000a81548160ff0219169083151502179055507f7284e8b42a1333a4f23e858e513b3b28d2667a3531b7c1872cce3f7720a2504681604051808273ffffffffffffffffffffffffffffffffffffffff1673ffffffffffffffffffffffffffffffffffffffff16815260200191505060405180910390a150565b6040518060400160405280600581526020017f312e302e3100000000000000000000000000000000000000000000000000000081525081565b6060614fdc836135ab565b90506000614fea84846152f8565b90506000614ff78361718d565b905060405180807f4552433230546f6b656e28616464726573732900000000000000000000000000815250601301905060405180910390207bffffffffffffffffffffffffffffffffffffffffffffffffffffffff1916817bffffffffffffffffffffffffffffffffffffffffffffffffffffffff1916141561518d5760006150848460046020016171bd565b905061518781600073ffffffffffffffffffffffffffffffffffffffff166323b872dd905060e01b333087604051602401808473ffffffffffffffffffffffffffffffffffffffff1673ffffffffffffffffffffffffffffffffffffffff1681526020018373ffffffffffffffffffffffffffffffffffffffff1673ffffffffffffffffffffffffffffffffffffffff1681526020018281526020019350505050604051602081830303815290604052907bffffffffffffffffffffffffffffffffffffffffffffffffffffffff19166020820180517bffffffffffffffffffffffffffffffffffffffffffffffffffffffff8381831617835250505050617306565b506152f1565b60405180807f4554482829000000000000000000000000000000000000000000000000000000815250600501905060405180910390207bffffffffffffffffffffffffffffffffffffffffffffffffffffffff1916817bffffffffffffffffffffffffffffffffffffffffffffffffffffffff191614156152825781341461527d576040517f08c379a00000000000000000000000000000000000000000000000000000000081526004018080602001828103825260188152602001807f494e434f52524543545f4445504f5349545f414d4f554e54000000000000000081525060200191505060405180910390fd5b6152f0565b6040517f08c379a00000000000000000000000000000000000000000000000000000000081526004018080602001828103825260168152602001807f554e535550504f525445445f544f4b454e5f545950450000000000000000000081525060200191505060405180910390fd5b5b5050505050565b60008061530484614cd5565b905080830291508281838161531557fe5b0414615389576040517f08c379a00000000000000000000000000000000000000000000000000000000081526004018080602001828103825260178152602001807f44455155414e54495a4154494f4e5f4f564552464c4f5700000000000000000081525060200191505060405180910390fd5b5092915050565b60008061539b617513565b90508060000160008473ffffffffffffffffffffffffffffffffffffffff1673ffffffffffffffffffffffffffffffffffffffff16815260200190815260200160002060009054906101000a900460ff16915050919050565b6153fd33615390565b61546f576040517f08c379a000000000000000000000000000000000000000000000000000000000815260040180806020018281038252600f8152602001807f4f4e4c595f474f5645524e414e4345000000000000000000000000000000000081525060200191505060405180910390fd5b60001515600460149054906101000a900460ff161515146154f8576040517f08c379a000000000000000000000000000000000000000000000000000000000815260040180806020018281038252600f8152602001807f53544154455f49535f46524f5a454e000000000000000000000000000000000081525060200191505060405180910390fd5b6155058360000183617620565b50428142011161557d576040517f08c379a00000000000000000000000000000000000000000000000000000000081526004018080602001828103825260158152602001807f494e56414c49445f52454d4f56414c5f44454c4159000000000000000000000081525060200191505060405180910390fd5b8042018360010160008473ffffffffffffffffffffffffffffffffffffffff1673ffffffffffffffffffffffffffffffffffffffff16815260200190815260200160002081905550505050565b60006155d4617513565b90508060010160009054906101000a900473ffffffffffffffffffffffffffffffffffffffff1673ffffffffffffffffffffffffffffffffffffffff163373ffffffffffffffffffffffffffffffffffffffff161461569b576040517f08c379a00000000000000000000000000000000000000000000000000000000081526004018080602001828103825260178152602001807f4f4e4c595f43414e4449444154455f474f5645524e4f5200000000000000000081525060200191505060405180910390fd5b6156c88160010160009054906101000a900473ffffffffffffffffffffffffffffffffffffffff166176ca565b60008160010160006101000a81548173ffffffffffffffffffffffffffffffffffffffff021916908373ffffffffffffffffffffffffffffffffffffffff1602179055507fcfb473e6c03f9a29ddaf990e736fa3de5188a0bd85d684f5b6e164ebfbfff5d233604051808273ffffffffffffffffffffffffffffffffffffffff1673ffffffffffffffffffffffffffffffffffffffff16815260200191505060405180910390a150565b606061577d836135ab565b9050600061578b84846152f8565b905060006157988361718d565b905060405180807f4552433230546f6b656e28616464726573732900000000000000000000000000815250601301905060405180910390207bffffffffffffffffffffffffffffffffffffffffffffffffffffffff1916817bffffffffffffffffffffffffffffffffffffffffffffffffffffffff191614156158fa5760006158258460046020016171bd565b90506158f481600073ffffffffffffffffffffffffffffffffffffffff1663a9059cbb905060e01b3386604051602401808373ffffffffffffffffffffffffffffffffffffffff1673ffffffffffffffffffffffffffffffffffffffff16815260200182815260200192505050604051602081830303815290604052907bffffffffffffffffffffffffffffffffffffffffffffffffffffffff19166020820180517bffffffffffffffffffffffffffffffffffffffffffffffffffffffff8381831617835250505050617306565b50615a30565b60405180807f4554482829000000000000000000000000000000000000000000000000000000815250600501905060405180910390207bffffffffffffffffffffffffffffffffffffffffffffffffffffffff1916817bffffffffffffffffffffffffffffffffffffffffffffffffffffffff191614156159c1573373ffffffffffffffffffffffffffffffffffffffff166108fc839081150290604051600060405180830381858888f193505050501580156159bb573d6000803e3d6000fd5b50615a2f565b6040517f08c379a00000000000000000000000000000000000000000000000000000000081526004018080602001828103825260168152602001807f554e535550504f525445445f544f4b454e5f545950450000000000000000000081525060200191505060405180910390fd5b5b5050505050565b6000808380549050905060008090505b81811015615ad0578373ffffffffffffffffffffffffffffffffffffffff16858281548110615a7257fe5b9060005260206000200160009054906101000a900473ffffffffffffffffffffffffffffffffffffffff1673ffffffffffffffffffffffffffffffffffffffff161415615ac3578092505050615af6565b8080600101915050615a47565b507fffffffffffffffffffffffffffffffffffffffffffffffffffffffffffffffff9150505b92915050565b615b0533615390565b615b77576040517f08c379a000000000000000000000000000000000000000000000000000000000815260040180806020018281038252600f8152602001807f4f4e4c595f474f5645524e414e4345000000000000000000000000000000000081525060200191505060405180910390fd5b60001515600460149054906101000a900460ff16151514615c00576040517f08c379a000000000000000000000000000000000000000000000000000000000815260040180806020018281038252600f8152602001807f53544154455f49535f46524f5a454e000000000000000000000000000000000081525060200191505060405180910390fd5b600084600001905060008473ffffffffffffffffffffffffffffffffffffffff1663eeb728666040518163ffffffff1660e01b815260040160006040518083038186803b158015615c5057600080fd5b505afa158015615c64573d6000803e3d6000fd5b505050506040513d6000823e3d601f19601f820116820180604052506020811015615c8e57600080fd5b8101908080516040519392919084640100000000821115615cae57600080fd5b83820191506020820185811115615cc457600080fd5b8251866001820283011164010000000082111715615ce157600080fd5b8083526020830192505050908051906020019080838360005b83811015615d15578082015181840152602081019050615cfa565b50505050905090810190601f168015615d425780820380516001836020036101000a031916815260200191505b506040525050506040516020018082805190602001908083835b60208310615d7f5780518252602082019150602081019050602083039250615d5c565b6001836020036101000a0380198251168184511680821785525050505050509050019150506040516020818303038152906040528051906020012090506000836040516020018082805190602001908083835b60208310615df55780518252602082019150602081019050602083039250615dd2565b6001836020036101000a038019825116818451168082178552505050505050905001915050604051602081830303815290604052805190602001209050808214615ea7576040517f08c379a000000000000000000000000000000000000000000000000000000000815260040180806020018281038252601e8152602001807f554e45585045435445445f434f4e54524143545f4944454e544946494552000081525060200191505060405180910390fd5b84838054905010615f20576040517f08c379a00000000000000000000000000000000000000000000000000000000081526004018080602001828103825260158152602001807f434841494e5f41545f4d41585f4341504143495459000000000000000000000081525060200191505060405180910390fd5b7fffffffffffffffffffffffffffffffffffffffffffffffffffffffffffffffff615f4b8488615a37565b14615fbe576040517f08c379a00000000000000000000000000000000000000000000000000000000081526004018080602001828103825260148152602001807f454e5452595f414c52454144595f45584953545300000000000000000000000081525060200191505060405180910390fd5b60008380549050148061604e57508573ffffffffffffffffffffffffffffffffffffffff1663d6354e156040518163ffffffff1660e01b815260040160206040518083038186803b15801561601257600080fd5b505afa158015616026573d6000803e3d6000fd5b505050506040513d602081101561603c57600080fd5b81019080805190602001909291905050505b6160c0576040517f08c379a00000000000000000000000000000000000000000000000000000000081526004018080602001828103825260118152602001807f454e5452595f4e4f545f454e41424c454400000000000000000000000000000081525060200191505060405180910390fd5b866000018690806001815401808255809150509060018203906000526020600020016000909192909190916101000a81548173ffffffffffffffffffffffffffffffffffffffff021916908373ffffffffffffffffffffffffffffffffffffffff1602179055505060008760010160008873ffffffffffffffffffffffffffffffffffffffff1673ffffffffffffffffffffffffffffffffffffffff1681526020019081526020016000208190555050505050505050565b600060405180606001604052806025815260200161869b602591396040518060400160405280600581526020017f312e302e31000000000000000000000000000000000000000000000000000000815250604051602001808060200180602001838103835285818151815260200191508051906020019080838360005b838110156162105780820151818401526020810190506161f5565b50505050905090810190601f16801561623d5780820380516001836020036101000a031916815260200191505b50838103825284818151815260200191508051906020019080838360005b8381101561627657808201518184015260208101905061625b565b50505050905090810190601f1680156162a35780820380516001836020036101000a031916815260200191505b5094505050505060405160208183030381529060405280519060200120905090565b6162cd6177b6565b6162d56178e3565b6162e285858585856179a0565b6162eb866179ca565b505050505050565b60008460000190506000818054905090506000811184906163af576040517f08c379a00000000000000000000000000000000000000000000000000000000081526004018080602001828103825283818151815260200191508051906020019080838360005b83811015616374578082015181840152602081019050616359565b50505050905090810190601f1680156163a15780820380516001836020036101000a031916815260200191505b509250505060405180910390fd5b5060008090505b81811015616535578281815481106163ca57fe5b9060005260206000200160009054906101000a900473ffffffffffffffffffffffffffffffffffffffff1673ffffffffffffffffffffffffffffffffffffffff16636a938567876040518263ffffffff1660e01b81526004018082815260200191505060206040518083038186803b15801561644557600080fd5b505afa158015616459573d6000803e3d6000fd5b505050506040513d602081101561646f57600080fd5b81019080805190602001909291905050508490616527576040517f08c379a00000000000000000000000000000000000000000000000000000000081526004018080602001828103825283818151815260200191508051906020019080838360005b838110156164ec5780820151818401526020810190506164d1565b50505050905090810190601f1680156165195780820380516001836020036101000a031916815260200191505b509250505060405180910390fd5b5080806001019150506163b6565b50505050505050565b6165d98260038151811061654e57fe5b60200260200101518360048151811061656357fe5b60200260200101518460058151811061657857fe5b60200260200101518560068151811061658d57fe5b6020026020010151866007815181106165a257fe5b6020026020010151876008815181106165b757fe5b6020026020010151876000815181106165cc57fe5b6020026020010151617a0e565b6165e38282617cf2565b5050565b6165f033615390565b616662576040517f08c379a000000000000000000000000000000000000000000000000000000000815260040180806020018281038252600f8152602001807f4f4e4c595f474f5645524e414e4345000000000000000000000000000000000081525060200191505060405180910390fd5b600061666c617513565b905060008160010160006101000a81548173ffffffffffffffffffffffffffffffffffffffff021916908373ffffffffffffffffffffffffffffffffffffffff1602179055507f7a8dc7dd7fffb43c4807438fa62729225156941e641fd877938f4edade3429f560405160405180910390a150565b6000807f08000000000000110000000000000000000000000000000000000000000000018061670c57fe5b837f08000000000000110000000000000000000000000000000000000000000000018061673557fe5b8586090990506167b87f08000000000000110000000000000000000000000000000000000000000000018061676657fe5b7f06f21413efbe40de150e596d72f7a8c5609ad26c15c915c1f4cdfcb99cee9e897f0800000000000011000000000000000000000000000000000000000000000001806167af57fe5b868508086181dc565b915050919050565b6167c933615390565b61683b576040517f08c379a000000000000000000000000000000000000000000000000000000000815260040180806020018281038252600f8152602001807f4f4e4c595f474f5645524e414e4345000000000000000000000000000000000081525060200191505060405180910390fd5b6000616845617513565b90506000151561685483615390565b1515146168c9576040517f08c379a00000000000000000000000000000000000000000000000000000000081526004018080602001828103825260108152602001807f414c52454144595f474f5645524e4f520000000000000000000000000000000081525060200191505060405180910390fd5b818160010160006101000a81548173ffffffffffffffffffffffffffffffffffffffff021916908373ffffffffffffffffffffffffffffffffffffffff1602179055507f6166272c8d3f5f579082f2827532732f97195007983bb5b83ac12c56700b01a682604051808273ffffffffffffffffffffffffffffffffffffffff1673ffffffffffffffffffffffffffffffffffffffff16815260200191505060405180910390a15050565b6000600860008581526020019081526020016000206000848152602001908152602001600020549050818101905081811015616a17576040517f08c379a00000000000000000000000000000000000000000000000000000000081526004018080602001828103825260138152602001807f5749544844524157414c5f4f564552464c4f570000000000000000000000000081525060200191505060405180910390fd5b80600860008681526020019081526020016000206000858152602001908152602001600020819055507f4427ca72edc12425211817f1bb4fbddfc60796a1f8bee1b7842ba181211e81408484616a6d86866152f8565b856040518085815260200184815260200183815260200182815260200194505050505060405180910390a150505050565b616aa733615390565b616b19576040517f08c379a000000000000000000000000000000000000000000000000000000000815260040180806020018281038252600f8152602001807f4f4e4c595f474f5645524e414e4345000000000000000000000000000000000081525060200191505060405180910390fd5b8073ffffffffffffffffffffffffffffffffffffffff163373ffffffffffffffffffffffffffffffffffffffff161415616bbb576040517f08c379a00000000000000000000000000000000000000000000000000000000081526004018080602001828103825260148152602001807f474f5645524e4f525f53454c465f52454d4f564500000000000000000000000081525060200191505060405180910390fd5b6000616bc5617513565b9050616bd082615390565b616c42576040517f08c379a000000000000000000000000000000000000000000000000000000000815260040180806020018281038252600c8152602001807f4e4f545f474f5645524e4f52000000000000000000000000000000000000000081525060200191505060405180910390fd5b60008160000160008473ffffffffffffffffffffffffffffffffffffffff1673ffffffffffffffffffffffffffffffffffffffff16815260200190815260200160002060006101000a81548160ff0219169083151502179055507fd75f94825e770b8b512be8e74759e252ad00e102e38f50cce2f7c6f868a2959982604051808273ffffffffffffffffffffffffffffffffffffffff1673ffffffffffffffffffffffffffffffffffffffff16815260200191505060405180910390a15050565b616d0c33615390565b616d7e576040517f08c379a000000000000000000000000000000000000000000000000000000000815260040180806020018281038252600f8152602001807f4f4e4c595f474f5645524e414e4345000000000000000000000000000000000081525060200191505060405180910390fd5b60001515600460149054906101000a900460ff16151514616e07576040517f08c379a000000000000000000000000000000000000000000000000000000000815260040180806020018281038252600f8152602001807f53544154455f49535f46524f5a454e000000000000000000000000000000000081525060200191505060405180910390fd5b60008260000190506000616e1b8284617620565b905060008460010160008573ffffffffffffffffffffffffffffffffffffffff1673ffffffffffffffffffffffffffffffffffffffff16815260200190815260200160002054905060008111616ed9576040517f08c379a00000000000000000000000000000000000000000000000000000000081526004018080602001828103825260158152602001807f52454d4f56414c5f4e4f545f414e4e4f554e434544000000000000000000000081525060200191505060405180910390fd5b80421015616f4f576040517f08c379a00000000000000000000000000000000000000000000000000000000081526004018080602001828103825260178152602001807f52454d4f56414c5f4e4f545f454e41424c45445f59455400000000000000000081525060200191505060405180910390fd5b60008380549050905060018111616fce576040517f08c379a000000000000000000000000000000000000000000000000000000000815260040180806020018281038252601d8152602001807f4c4153545f454e5452595f4d41595f4e4f545f42455f52454d4f56454400000081525060200191505060405180910390fd5b60018103831461706757836001820381548110616fe757fe5b9060005260206000200160009054906101000a900473ffffffffffffffffffffffffffffffffffffffff1684848154811061701e57fe5b9060005260206000200160006101000a81548173ffffffffffffffffffffffffffffffffffffffff021916908373ffffffffffffffffffffffffffffffffffffffff1602179055505b8380548061707157fe5b6001900381819060005260206000200160006101000a81549073ffffffffffffffffffffffffffffffffffffffff02191690559055505050505050565b60001515600460149054906101000a900460ff16151514617137576040517f08c379a000000000000000000000000000000000000000000000000000000000815260040180806020018281038252600f8152602001807f53544154455f49535f46524f5a454e000000000000000000000000000000000081525060200191505060405180910390fd5b6301e1338042016005819055506001600460146101000a81548160ff0219169083151502179055507ff5b8e6419478ab140eb98026ab5bd607038cb0ac4d4dad5b1fc0848dfd203d1f60405160405180910390a1565b600060208201517fffffffff00000000000000000000000000000000000000000000000000000000169050919050565b600081830151905092915050565b600060606171d8836135ab565b905060006171e58261718d565b905060405180807f4554482829000000000000000000000000000000000000000000000000000000815250600501905060405180910390207bffffffffffffffffffffffffffffffffffffffffffffffffffffffff1916817bffffffffffffffffffffffffffffffffffffffffffffffffffffffff19161492505050919050565b60008061727284614cd5565b9050600081848161727f57fe5b06146172f3576040517f08c379a000000000000000000000000000000000000000000000000000000000815260040180806020018281038252600e8152602001807f494e56414c49445f414d4f554e5400000000000000000000000000000000000081525060200191505060405180910390fd5b8083816172fc57fe5b0491505092915050565b600060608373ffffffffffffffffffffffffffffffffffffffff16836040518082805190602001908083835b602083106173555780518252602082019150602081019050602083039250617332565b6001836020036101000a0380198251168184511680821785525050505050509050019150506000604051808303816000865af19150503d80600081146173b7576040519150601f19603f3d011682016040523d82523d6000602084013e6173bc565b606091505b5091509150818190617469576040517f08c379a00000000000000000000000000000000000000000000000000000000081526004018080602001828103825283818151815260200191508051906020019080838360005b8381101561742e578082015181840152602081019050617413565b50505050905090810190601f16801561745b5780820380516001836020036101000a031916815260200191505b509250505060405180910390fd5b5060008151111561750d5780806020019051602081101561748957600080fd5b810190808051906020019092919050505061750c576040517f08c379a00000000000000000000000000000000000000000000000000000000081526004018080602001828103825260168152602001807f45524332305f4f5045524154494f4e5f4641494c45440000000000000000000081525060200191505060405180910390fd5b5b50505050565b6000606061751f61821f565b9050600080826040518082805190602001908083835b602083106175585780518252602082019150602081019050602083039250617535565b6001836020036101000a03801982511681845116808217855250505050505090500191505090815260200160405180910390209050600115158160010160149054906101000a900460ff16151514617618576040517f08c379a000000000000000000000000000000000000000000000000000000000815260040180806020018281038252600f8152602001807f4e4f545f494e495449414c495a4544000000000000000000000000000000000081525060200191505060405180910390fd5b809250505090565b600061762c8383615a37565b90507fffffffffffffffffffffffffffffffffffffffffffffffffffffffffffffffff8114156176c4576040517f08c379a00000000000000000000000000000000000000000000000000000000081526004018080602001828103825260148152602001807f454e5452595f444f45535f4e4f545f455849535400000000000000000000000081525060200191505060405180910390fd5b92915050565b600015156176d782615390565b15151461774c576040517f08c379a00000000000000000000000000000000000000000000000000000000081526004018080602001828103825260108152602001807f414c52454144595f474f5645524e4f520000000000000000000000000000000081525060200191505060405180910390fd5b6000617756617513565b905060018160000160008473ffffffffffffffffffffffffffffffffffffffff1673ffffffffffffffffffffffffffffffffffffffff16815260200190815260200160002060006101000a81548160ff0219169083151502179055505050565b60606177c061821f565b9050600080826040518082805190602001908083835b602083106177f957805182526020820191506020810190506020830392506177d6565b6001836020036101000a03801982511681845116808217855250505050505090500191505090815260200160405180910390209050600015158160010160149054906101000a900460ff161515146178b9576040517f08c379a00000000000000000000000000000000000000000000000000000000081526004018080602001828103825260138152602001807f414c52454144595f494e495449414c495a45440000000000000000000000000081525060200191505060405180910390fd5b60018160010160146101000a81548160ff0219169083151502179055506178df336176ca565b5050565b6001601360003373ffffffffffffffffffffffffffffffffffffffff1673ffffffffffffffffffffffffffffffffffffffff16815260200190815260200160002060006101000a81548160ff0219169083151502179055507f50a18c352ee1c02ffe058e15c2eb6e58be387c81e73cc1e17035286e54c19a5733604051808273ffffffffffffffffffffffffffffffffffffffff1673ffffffffffffffffffffffffffffffffffffffff16815260200191505060405180910390a1565b84600c8190555083600d8190555082600f8190555081600e81905550806010819055505050505050565b80600460006101000a81548173ffffffffffffffffffffffffffffffffffffffff021916908373ffffffffffffffffffffffffffffffffffffffff16021790555050565b60001515600460149054906101000a900460ff16151514617a97576040517f08c379a000000000000000000000000000000000000000000000000000000000815260040180806020018281038252600f8152602001807f53544154455f49535f46524f5a454e000000000000000000000000000000000081525060200191505060405180910390fd5b600d548714617b0e576040517f08c379a00000000000000000000000000000000000000000000000000000000081526004018080602001828103825260148152602001807f5641554c545f524f4f545f494e434f525245435400000000000000000000000081525060200191505060405180910390fd5b600f548514617b85576040517f08c379a00000000000000000000000000000000000000000000000000000000081526004018080602001828103825260148152602001807f4f524445525f524f4f545f494e434f525245435400000000000000000000000081525060200191505060405180910390fd5b82600e5414617bfc576040517f08c379a00000000000000000000000000000000000000000000000000000000081526004018080602001828103825260168152602001807f5641554c545f4845494748545f494e434f52524543540000000000000000000081525060200191505060405180910390fd5b8160105414617c73576040517f08c379a00000000000000000000000000000000000000000000000000000000081526004018080602001828103825260168152602001807f4f524445525f4845494748545f494e434f52524543540000000000000000000081525060200191505060405180910390fd5b85600d8190555083600f819055506001600c5401600c8190555080601d819055507fd606ef105963a7e789d927c1d21df5111915b832996b92648138f59eb9763a20600c5482600d54600f546040518085815260200184815260200183815260200182815260200194505050505060405180910390a150505050505050565b600381511015617d4d576040517f08c379a00000000000000000000000000000000000000000000000000000000081526004018080602001828103825260358152602001806186c06035913960400191505060405180910390fd5b600081600281518110617d5c57fe5b602002602001015190506003600984510381617d7457fe5b048114617dcc576040517f08c379a00000000000000000000000000000000000000000000000000000000081526004018080602001828103825260258152602001806186456025913960400191505060405180910390fd5b60038101825114617e28576040517f08c379a00000000000000000000000000000000000000000000000000000000081526004018080602001828103825260488152602001806187676048913960600191505060405180910390fd5b60008090505b818110156181d65760006003820260090190506000858281518110617e4f57fe5b602002602001015190506000856003850181518110617e6a57fe5b602002602001015190506000876001850181518110617e8557fe5b602002602001015190507f08000000000000110000000000000000000000000000000000000000000000018310617f24576040517f08c379a00000000000000000000000000000000000000000000000000000000081526004018080602001828103825260128152602001807f537461726b206b6579203e3d205052494d45000000000000000000000000000081525060200191505060405180910390fd5b7f08000000000000110000000000000000000000000000000000000000000000018210617fb9576040517f08c379a00000000000000000000000000000000000000000000000000000000081526004018080602001828103825260178152602001807f52657175657374696e67206b6579203e3d205052494d4500000000000000000081525060200191505060405180910390fd5b7f0800000000000011000000000000000000000000000000000000000000000001811061804e576040517f08c379a00000000000000000000000000000000000000000000000000000000081526004018080602001828103825260118152602001807f546f6b656e206964203e3d205052494d4500000000000000000000000000000081525060200191505060405180910390fd5b600088600286018151811061805f57fe5b602002602001015190506000677fffffffffffffff60c083901c1690506000677fffffffffffffff608084901c1690506000637fffffff606085901c1690506000861461816e57858714156180ff576040517f08c379a000000000000000000000000000000000000000000000000000000000815260040180806020018281038252604c81526020018061871b604c913960600191505060405180910390fd5b818314618157576040517f08c379a000000000000000000000000000000000000000000000000000000000815260040180806020018281038252602881526020018061861d6028913960400191505060405180910390fd5b618161868261823f565b50505050505050506181c9565b8282111561818f57600083830390506181898883888461826d565b506181c0565b818311156181ab57600082840390506181a9888783618361565b505b60008214156181bf576181be878261823f565b5b5b50505050505050505b8080600101915050617e2e565b50505050565b600061821582600260017f0800000000000011000000000000000000000000000000000000000000000001038161820f57fe5b04618371565b6001149050919050565b60606040518060600160405280602681526020016186f560269139905090565b6000600b60008481526020019081526020016000206000838152602001908152602001600020819055505050565b806006600086815260200190815260200160002060008481526020019081526020016000206000858152602001908152602001600020541015618318576040517f08c379a00000000000000000000000000000000000000000000000000000000081526004018080602001828103825260148152602001807f4445504f5349545f494e53554646494349454e5400000000000000000000000081525060200191505060405180910390fd5b8060066000868152602001908152602001600020600084815260200190815260200160002060008581526020019081526020016000206000828254039250508190555050505050565b61836c838383616973565b505050565b6000806060600573ffffffffffffffffffffffffffffffffffffffff16602080602088887f0800000000000011000000000000000000000000000000000000000000000001604051602001808760ff1681526020018660ff1681526020018560ff16815260200184815260200183815260200182815260200196505050505050506040516020818303038152906040526040518082805190602001908083835b602083106184345780518252602082019150602081019050602083039250618411565b6001836020036101000a038019825116818451168082178552505050505050905001915050600060405180830381855afa9150503d8060008114618494576040519150601f19603f3d011682016040523d82523d6000602084013e618499565b606091505b5091509150818190618546576040517f08c379a00000000000000000000000000000000000000000000000000000000081526004018080602001828103825283818151815260200191508051906020019080838360005b8381101561850b5780820151818401526020810190506184f0565b50505050905090810190601f1680156185385780820380516001836020036101000a031916815260200191505b509250505060405180910390fd5b5080806020019051602081101561855c57600080fd5b81019080805190602001909291905050509250505092915050565b828054600181600116156101000203166002900490600052602060002090601f016020900481019282601f106185b857803560ff19168380011785556185e6565b828001600101855582156185e6579182015b828111156185e55782358255916020019190600101906185ca565b5b5090506185f391906185f7565b5090565b61861991905b808211156186155760008160009055506001016185fd565b5090565b9056fe416d6f756e74732064696666657220696e2066616c73652066756c6c207769746864726177616c2e496e636f6e73697374656e74206e756d626572206f66206d6f64696669636174696f6e732e7075626c6963496e70757420646f6573206e6f7420636f6e7461696e20616c6c207265717569726564206669656c64732e494e49545f5441475f537461726b776172652e537461726b45786368616e67652e323032306170706c69636174696f6e4461746120646f6573206e6f7420636f6e7461696e20616c6c207265717569726564206669656c64732e537461726b45782e4d61696e2e323031392e476f7665726e6f7273496e666f726d6174696f6e46616c73652066756c6c207769746864726177616c2072657175657374696e675f6b65792073686f756c64206469666665722066726f6d20746865207661756c74206f776e6572206b65792e496e636f6e73697374656e74206e756d626572206f66206d6f64696669636174696f6e7320696e206170706c69636174696f6e4461746120616e64207075626c6963496e7075742ea265627a7a7231582044ccbdc5e76b1e79f601fb6bd5cd9ede7e70e9a404ff952b22cdf5e03cdd5f8864736f6c63430005100032537461726b45782e4d61696e2e323031392e476f7665726e6f7273496e666f726d6174696f6e",
  "source": "pragma solidity ^0.5.2;\n\nimport \"./components/ApprovalChain.sol\";\nimport \"./components/AvailabilityVerifiers.sol\";\nimport \"./components/Freezable.sol\";\nimport \"./components/MainGovernance.sol\";\nimport \"./components/Operator.sol\";\nimport \"./components/Tokens.sol\";\nimport \"./components/Users.sol\";\nimport \"./components/Verifiers.sol\";\nimport \"./interactions/Deposits.sol\";\nimport \"./interactions/Escapes.sol\";\nimport \"./interactions/FullWithdrawals.sol\";\nimport \"./interactions/StateRoot.sol\";\nimport \"./interactions/UpdateState.sol\";\nimport \"./interactions/Withdrawals.sol\";\nimport \"./interfaces/IFactRegistry.sol\";\n\ncontract StarkExchange is\n    IVerifierActions,\n    MainGovernance,\n    ApprovalChain,\n    AvailabilityVerifiers,\n    Operator,\n    Freezable,\n    Tokens,\n    Users,\n    StateRoot,\n    Deposits,\n    Verifiers,\n    Withdrawals,\n    FullWithdrawals,\n    Escapes,\n    UpdateState\n{\n    string constant public VERSION = \"1.0.1\";\n    string constant INIT_TAG = \"INIT_TAG_Starkware.StarkExchange.2020\";\n\n    /*\n      Determines the key to the intialized mapping.\n    */\n    function initKey() internal pure returns(bytes32 key){\n        key = keccak256(abi.encode(INIT_TAG, VERSION));\n    }\n\n\n    // Mixins are instantiated in the order they are inherited.\n    constructor (\n        IFactRegistry escapeVerifier,\n        uint256 initialSequenceNumber,\n        uint256 initialVaultRoot,\n        uint256 initialOrderRoot,\n        uint256 initialVaultTreeHeight,\n        uint256 initialOrderTreeHeight\n    )\n        public\n    {\n        // The method internalInitialize is the de-facto initializer.\n        // It's called directly from the constructor, to allow compatibility with no-upgradability\n        // mode, and called from the initialize() method (after call protection and args decode)\n        // to allow upgradability mode.\n        internalInitialize(\n            escapeVerifier,\n            initialSequenceNumber,\n            initialVaultRoot,\n            initialOrderRoot,\n            initialVaultTreeHeight,\n            initialOrderTreeHeight\n        );\n    }\n\n    function internalInitialize(\n        IFactRegistry escapeVerifier,\n        uint256 initialSequenceNumber,\n        uint256 initialVaultRoot,\n        uint256 initialOrderRoot,\n        uint256 initialVaultTreeHeight,\n        uint256 initialOrderTreeHeight\n    )\n    internal\n    {\n        initGovernance();\n        Operator.initialize();\n        StateRoot.initialize(initialSequenceNumber, initialVaultRoot,\n            initialOrderRoot, initialVaultTreeHeight, initialOrderTreeHeight);\n        Escapes.initialize(escapeVerifier);\n    }\n\n    /*\n      Called from the proxy, upon upgradeTo.\n      If already initialized (determinted by the initKey) - will skip altogether.\n      If not init yet && init data is not empty:\n      1. extract data to init parameters.\n      2. call internalInitializer with those params.\n    */\n    function initialize(bytes calldata data)\n        external\n    {\n        bytes32 key = initKey();\n\n        // Skip initialize if already been initialized.\n        if (initialized[key] == false){\n            // If data is empty - skip internalInitializer.\n            if (data.length > 0){\n                // Ensure data length is exactly the correct size.\n                // 192 = sizeof(address) + 5 * sizeof(uint256).\n                require(data.length == 192, \"INCORRECT_INIT_DATA_SIZE\");\n                IFactRegistry escapeVerifier;\n                uint256 initialSequenceNumber;\n                uint256 initialVaultRoot;\n                uint256 initialOrderRoot;\n                uint256 initialVaultTreeHeight;\n                uint256 initialOrderTreeHeight;\n                (\n                    escapeVerifier,\n                    initialSequenceNumber,\n                    initialVaultRoot,\n                    initialOrderRoot,\n                    initialVaultTreeHeight,\n                    initialOrderTreeHeight\n                ) = abi.decode(data,\n                    (IFactRegistry, uint256, uint256, uint256, uint256, uint256));\n\n                internalInitialize(\n                    escapeVerifier,\n                    initialSequenceNumber,\n                    initialVaultRoot,\n                    initialOrderRoot,\n                    initialVaultTreeHeight,\n                    initialOrderTreeHeight\n                );\n            }\n            initialized[key] = true;\n        }\n    }\n}\n",
  "sourcePath": "/Users/gokulalex/Apps/eth_apps/ErgoNet/starkex-contracts/scalable-dex/contracts/src/StarkExchange.sol",
  "compiler": {
    "name": "solc",
    "version": "0.5.16+commit.9c3226ce.Emscripten.clang"
  },
  "schemaVersion": "3.3.1",
  "updatedAt": "2020-10-26T03:37:13.395Z",
  "devdoc": {
    "methods": {}
  },
  "userdoc": {
    "methods": {}
  }
}